:08000000803102288731ED2F49
:100590000800080054019D17080054019E16080029
:1005A00054011D121D16080042011D121D160800DF
:1005B000700842019A000800700854019A0008006F
:1005C0004E010F0E890C0139080071084001E1004D
:1005D0007008E0000800640080010131890BEC2AFA
:1005E00000344E0119100F1043018F019001920148
:1005F0008D0108008431FF24823140014008CB0086
:100600003F08CA000800603051018D0040308F0063
:10061000910104309300920108004E010C1000304B
:10062000F0000030F1008231E522833108007008CB
:10063000710403191C2B1D2B222B71084001D700BC
:100640007008D6000800700871040319282B292BA4
:100650002E2B71084001D5007008D40008007008E6
:1006600071040319342B352B3A2B71084001DD003E
:100670007008DC000800700871040319402B412B3E
:10068000462B71084001DB007008DA000800823157
:10069000E0228331003A03194E2B4F2B472B843134
:1006A0007324833108007708F8007608F900783061
:1006B000F0000230F1000030F20084314D2483312B
:1006C0000800C9304001B8008830B9003E08BB00BE
:1006D0003D08BA008331BA2383316D2B0800F10045
:1006E00083318D238331003A0319772B782B702BBC
:1006F0007108F0008231DC2283310800F0014E01E4
:100700000F1E832B842B8B2B42019E1E882B892B43
:100710008B2B0130F00070080800F0014E010F1F14
:10072000922B932B9A2B54019E1E972B982B9A2B2E
:100730000130F00070080800F10083317E2383311E
:10074000003A0319A42BA52B9D2B7108F0008231D0
:10075000D82283310800F10083318D238331003AA0
:100760000319B32BB42BAC2B7108F0008231DC22BF
:10077000833108003A304001BC000030B300B400BF
:100780003908B6003808B5003C30B70084312D2454
:10079000833108008331032383318531722583310E
:1007A0008431102483318331F42383318231F12267
:1007B000833183310D2383310800EA2B72088400D2
:1007C00073088500000883316F2383310130F207FD
:1007D0000030F33D72088400730885001200031D89
:1007E000F22BF32BDE2B0800483054019F00903091
:1007F0009D0026309E0019309B009C01C830F000FF
:100800000230F10083312F238331D030F0000230E9
:10081000F10083313B2383314001DE01DF01080019
:10082000483042019F0090309D0026309E003830B5
:100830009B0001309C00C930F0000230F100833190
:1008400017238431D430F0000230F10083312323A8
:1008500084314001D801D901080040013608FD006B
:100860003508FC00402C40013408A1003308A000EA
:100870007C30A2003708A300A40186318F26843182
:100880007C0884007D0885001200031D482C492C3B
:10089000332C4001B301B40108007008F500720860
:1008A000F4007108F3006C2C7508860087010108BC
:1008B00043018C004E010F1C5E2C5F2C5A2C0F1034
:1008C00075088600870143010C0881000130F50797
:1008D0000130F3020030F43B73087404031D712CE3
:1008E000722C542C08004001D801D90142019D1CF2
:1008F0007A2C7B2C882C4001581554085504031978
:10090000822C832C882C55088A0054080A008431D4
:1009100042011D1D8C2C8D2C9A2C4001D814560898
:1009200057040319942C952C9A2C57088A005608C2
:100930000A008431420119080800F401F501BE2CB7
:1009400040011B150830F3009D30F2000630890B82
:10095000A72CF20BA72CF30BA72C40011B1108307E
:10096000F3009D30F2000630890BB42CF20BB42C4E
:10097000F30BB42C0130F4070030F53D7508803AD4
:10098000F2007108803A7202031DC82C70087402CC
:10099000031CCB2CCC2CA02C08007008710403196C
:1009A000D22CD32CFA2C0130F400DD2C0130F035A0
:1009B000F10D890BD72C0130F407F11FE02CE12C4D
:1009C000D62C71087302031DE72C70087202031CF9
:1009D000EA2CEB2CEF2C7008F2027108F33B01308B
:1009E000F136F00C890BF02C0130F402031DF92CC8
:1009F000FA2CE12C7308F1007208F00008001230A4
:100A00004001C8003430C9004830F0000230F10025
:100A10000030F20084314D248431FF304001C100A8
:100A2000FF30C20000304206031D182D4830410639
:100A3000031D1B2D1C2D232DBA30BD008830BE0098
:100A400083316123843140014908C100C201480853
:100A5000C300C4014308C400C30141084304C600E5
:100A600042084404C7004708C0004608BF00080009
:100A7000F401F5017008710403193F2D402D6D2D0F
:100A80000130F6004A2D0130F035F10D890B442D6F
:100A90000130F607F11F4D2D4E2D432D0130F43559
:100AA000F50D890B4F2D71087302031D592D700828
:100AB0007202031C5C2D5D2D622D7008F20271081C
:100AC000F33B74140130F136F00C890B632D0130C7
:100AD000F602031D6C2D6D2D4E2D7508F100740866
:100AE000F00008004001980199019A019B019C01C6
:100AF000FF30920097309300AF309400F2309500B1
:100B00000F309600FE307E01B8008730C3002D30D4
:100B1000CE00F130D9000730E400B901C401CF01A3
:100B2000DA01E501BA01C501D001DB01E601FF30C0
:100B3000BB00FF30C600FF30D100FF30DC000730C3
:100B4000E700FF30BC00FF30C700FF30D200FF30AD
:100B5000DD000F30E80017307D01CB000C30C600FF
:100B60001930CD000F307E01A60016309E001130E6
:100B7000A8000D307D01C50015307E019D00BD012E
:100B8000BE01BF01C801C901CA01D301D401D50109
:100B9000E901EA01EB010800740875040319D12D7D
:100BA000D22DD82D74087504031DD72DD82DDD2D19
:100BB00072088331AB238531272E740886007508AF
:100BC00087004931160001040319E72DE82D082E8E
:100BD00074088600750887004931403FF600413FA0
:100BE000F70074088600750887004231403FF8001E
:100BF000413FF9007908803AFA007708803A7A0292
:100C0000031D042E760878020318072E082E272EBF
:100C100074088600750887004231740884007508DE
:100C20008500003FF600013FF700403F7607840053
:100C3000413F773D85007208800074088600750882
:100C4000870042310130810741310318810A0800D1
:100C50008331CA2386318231CA2286318231CD2244
:100C60008631400112147E013810400195129B1606
:100C70000130F0000030F10084319D248631AB302A
:100C8000F2008830F3008331DD2386314301901A6E
:100C90004A2E4B2E532E8F010A30900010309200B6
:100CA00017308D00901640019B128231FA22863156
:100CB00040014B08CF004A08CE009B164F088331F5
:100CC0009C23863140014E0883319C2386314001AC
:100CD0004F08CD004E08CC000730CD36CC0C890B28
:100CE0006D2E4C08CE004D08CF009930B8008830EA
:100CF000B9004F08BB004E08BA008331BA238631D1
:100D000002304001CD008630CC009930890B862E10
:100D1000CC0B862ECD0B862E532E8031022840011F
:100D2000220886008701403FA500413FA600250814
:100D30008400260885001200253A031DA02EA12E4E
:100D4000D22F220886008701013081074131031824
:100D5000810AD001D1010030E200FF30D200FF3023
:100D6000D300220886008701403FAC00413FAD0020
:100D70002C0884002D0885001200753A031DC12E31
:100D8000C22E352F2308860024088700010884001E
:100D9000850102308107003FAE00013FAF002C0803
:100DA000013EA50000302D3DA600220886008701E7
:100DB0002508C03F2608C13F2C2F2030B20001304B
:100DC000B2023208A03E860087010A30F0000030EF
:100DD000F1002F08F3002E08F2008431CD24863173
:100DE0007008303E81000A30F0000030F100400110
:100DF0002F08F3002E08F20085313825863171085E
:100E00004001AF007008AE002E082F040319092F0F
:100E10000A2F252F3208031D0E2F0F2FDF2E252F0F
:100E20003208A03E860087010108A500A60125081A
:100E3000F2002608F3002108F5002008F4008531AF
:100E4000CC25863101304001B20720303206031D27
:100E50002A2F2B2F102FEC2F2C0884002D08850013
:100E60000008753A0319DD2E352FA90122088600E6
:100E70008701403FA500413FA600250884002608C1
:100E800085001200733A031D462F472F522F220868
:100E9000860087010130810741310318810A013042
:100EA000A900942F220886008701403FA500413FFA
:100EB000A600250884002608850012006C3A031D50
:100EC000622F632F942F220886008701403FA500E0
:100ED000413FA60001302507840026080318013E83
:100EE000850012006C3A031D762F772F942F22086D
:100EF00086008701403FA500413FA600023025073C
:100F0000840026080318013E85001200733A031D71
:100F10008A2F8B2F942F22088600870103308107A8
:100F200041310318810A4F2F29080319982F992F4F
:100F3000C82F230886002408870001088400850143
:100F400002308107003FAA00013FAB00BE2F2A08F4
:100F500084002B0885000008A500A6012508F200E2
:100F60002608F3002108F5002008F4008531CC257F
:100F7000863101304001AA070030AB3D2A088400C9
:100F80002B0885001200031DC62FC72FA72FEC2F9B
:100F90004001220886008701013081074131031892
:100FA000810AEC2F220886008701403FA500413FBF
:100FB000A60025088400260885000008A700A801CF
:100FC0002708F2002808F3002108F5002008F400A3
:100FD0008531CC258631C82F080050308400003080
:100FE000850013308231EB228731A030840000303D
:100FF000850020308231EB22873140018631282E56
:10100000103404340034003473340434D8340234DB
:10101000E03402347E3403340034003400340034CD
:101020000034003400340034003400340034003420
:101030000034003400340034003400340034003410
:101040000034003400340034003400340034003400
:1010500017340334233403340034003400340034B0
:10106000F43403340034003400340034DC3402340B
:10107000003400348D34033400340034CD34023471
:1010800000340034003400340034003400340034C0
:1010900000340034003400340034003400340034B0
:1010A00000340034003400340034003400340034A0
:1010B0002F3403343B340334003400340034003420
:1010C00000340A34103417340034643400341034DB
:1010D0000134003452346534633465346934763411
:1010E00065346434203464346134743461343A34A3
:1010F0002034253475340A340034F1340234003499
:10110000003400340034003400344D3404340034EE
:10111000003400340034003400340034003400342F
:10112000003400340034003400340034003400341F
:101130000034543465346D34703465347234613441
:1011400074347534723465343A342034253475344B
:101150000A340D3400344D346F34643465343A3419
:1011600020346D34613473347434653472340A3429
:101170000D340034533450344934203452346534FF
:101180006134643420344534723472346F347234D0
:1011900000344534723472346F3472343A3420344B
:0811A000253473340A340034D5
:020000040001F9
:0A000E00FA37FF3D9F3FFF3FFF3F21
:00000001FF
