:08000000803102288731ED2F49
:10045A000800080054019D17080054019E16080060
:10046A0054011D121D16080042011D121D16080016
:10047A00700842019A000800700854019A000800A6
:10048A004E010F0E890C0139080071084001E10084
:10049A007008E0000800640080010131890B512ACC
:1004AA0000344E0119100F1043018F01900192017F
:1004BA008D01080084318424823140014008CB0038
:1004CA003F08CA000800603051018D0040308F009B
:1004DA00910104309300920108004E010C10003083
:1004EA00F0000030F10082314A228231080070089F
:1004FA0071040319812A822A872A71084001D700C8
:10050A007008D60008007008710403198D2A8E2A13
:10051A00932A71084001D5007008D40008007008B9
:10052A0071040319992A9A2A9F2A71084001DD0049
:10053A007008DC000800700871040319A52AA62AAD
:10054A00AB2A71084001DB007008DA00080082312A
:10055A0045228231003A0319B32AB42AAC2A8331DC
:10056A00F823823108007708F8007608F900783015
:10057A00F0000230F1000030F2008331D2238231E0
:10058A000800DC304001B8008830B9003E08BB00E2
:10059A003D08BA0083311F238231D22A0800F100B4
:1005AA008231F2228231003A0319DC2ADD2AD52A65
:1005BA007108F0008231412282310800F0014E01B7
:1005CA000F1EE82AE92AF02A42019E1EED2AEE2A87
:1005DA00F02A0130F00070080800F0014E010F1FE8
:1005EA00F72AF82AFF2A54019E1EFC2AFD2AFF2A0E
:1005FA000130F00070080800F1008231E3228331F3
:10060A00003A0319092B0A2B022B7108F0008231D8
:10061A003D2283310800F1008231F2228331003A0F
:10062A000319182B192B112B7108F0008231412262
:10063A00833108003A304001BC000030B300B400F6
:10064A003908B6003808B5003C30B7008331B22308
:10065A00833108008231682283318431F72483315F
:10066A008331592383318331762383318231562270
:10067A00833182317222833108004F2B7208840041
:10068A007308850000088231D42283310130F207D1
:10069A000030F33D72088400730885001200031DC0
:1006AA00572B582B432B0800483042019F009030AB
:1006BA009D0026309E0038309B0001309C002E3071
:1006CA00F0000230F10082317C2283313930F000AF
:1006DA000230F1008231882283314001D801D901E8
:1006EA000800483054019F0090309D0026309E003B
:1006FA0038309B0001309C002D30F0000230F100B0
:10070A008231942283313530F0000230F100823197
:10071A00A02283314001DE01DF010800F401F50166
:10072A00701C982B992B9D2B7208F4077308F53DC2
:10073A000130F235F30D890B9E2B0130F136F00CA6
:10074A00890BA32B70087104031DAC2BAD2B952BC1
:10075A007508F1007408F000080040013608FD0031
:10076A003508FC00C52B40013408A1003308A0005D
:10077A007C30A2003708A300A40186318F2683317A
:10078A007C0884007D0885001200031DCD2BCE2B2A
:10079A00B82B4001B301B40108007008F5007208D3
:1007AA00F4007108F300F12B75088600870101082F
:1007BA0043018C004E010F1CE32BE42BDF2B0F109F
:1007CA0075088600870143010C0881000130F5078E
:1007DA000130F3020030F43B73087404031DF62B56
:1007EA00F72BD92B08004001D801D90142019D1CE1
:1007FA00FF2B002C0D2C40015815540855040319E1
:10080A00072C082C0D2C55088A0054080A0084313C
:10081A0042011D1D112C122C1F2C4001D814560800
:10082A0057040319192C1A2C1F2C57088A0056082A
:10083A000A008431420119080800F401F501432C29
:10084A0040011B150830F3009D30F2000630890B79
:10085A002C2CF20B2C2CF30B2C2C40011B110830E6
:10086A00F3009D30F2000630890B392CF20B392C3B
:10087A00F30B392C0130F4070030F53D7508803A46
:10088A00F2007108803A7202031D4D2C700874023E
:10089A00031C502C512C252C0800700871040319D4
:1008AA00572C582C7F2C0130F400622C0130F03583
:1008BA00F10D890B5C2C0130F407F11F652C662CB5
:1008CA005B2C71087302031D6C2C70087202031CE6
:1008DA006F2C702C742C7008F2027108F33B0130F3
:1008EA00F136F00C890B752C0130F402031D7E2CB5
:1008FA007F2C662C7308F1007208F0000800123091
:10090A004001C8003430C9004830F0000230F1001C
:10091A000030F2008331D2238431FF304001C1001C
:10092A00FF30C20000304206031D9D2C48304106AC
:10093A00031DA02CA12CA82CCD30BD008830BE00F0
:10094A008231C622843140014908C100C2014808E7
:10095A00C300C4014308C400C30141084304C600DC
:10096A0042084404C7004708C0004608BF00080000
:10097A00F401F501700871040319C42CC52CF22C7A
:10098A000130F600CF2C0130F035F10D890BC92C5E
:10099A000130F607F11FD22CD32CC82C0130F435C4
:1009AA00F50D890BD42C71087302031DDE2C700817
:1009BA007202031CE12CE22CE72C7008F202710887
:1009CA00F33B74140130F136F00C890BE82C01303A
:1009DA00F602031DF12CF22CD32C7508F1007408D1
:1009EA00F00008004001980199019A019B019C01BD
:1009FA00FF30920097309300AF309400F2309500A8
:100A0A000F309600FE307E01B8008730C3002D30CB
:100A1A00CE00F130D9000730E400B901C401CF019A
:100A2A00DA01E501BA01C501D001DB01E601FF30B7
:100A3A00BB00FF30C600FF30D100FF30DC000730BA
:100A4A00E700FF30BC00FF30C700FF30D200FF30A4
:100A5A00DD000F30E80017307D01CB000C30C600F6
:100A6A001930CD000F307E01A60016309E001130DD
:100A7A00A8000D307D01C50015307E019D00BD0125
:100A8A00BE01BF01C801C901CA01D301D401D50100
:100A9A00E901EA01EB010800740875040319562DEF
:100AAA00572D5D2D74087504031D5C2D5D2D622D77
:100ABA007208833110238531AC2D740886007508BD
:100ACA00870049311600010403196C2D6D2D8D2DF7
:100ADA0074088600750887004931403FF600413F97
:100AEA00F70074088600750887004231403FF80015
:100AFA00413FF9007908803AFA007708803A7A0289
:100B0A00031D892D7608780203188C2D8D2DAC2DA6
:100B1A0074088600750887004231740884007508D5
:100B2A008500003FF600013FF700403F760784004A
:100B3A00413F773D85007208800074088600750879
:100B4A00870042310130810741310318810A0800C8
:100B5A004301901AB12DB22D162E7608F700F8012E
:100B6A007708F0007808F1000530F2000030F30051
:100B7A008331932385316030700784000830713DDA
:100B8A0080388500000843018F007608F700F801D5
:100B9A007708F0007808F1000530F2000030F30021
:100BAA008331932385316130700784000830713DA9
:100BBA00803885000008430190007608F700F801A4
:100BCA007708F0007808F1000530F2000030F300F1
:100BDA008331932385316230700784000830713D78
:100BEA00803885000008430192007608F700F80172
:100BFA007708F0007808F1000530F2000030F300C1
:100C0A008331932385316330700784000830713D46
:100C1A0080388500000843018D0090160130F900E4
:100C2A00172EF9017908080083312F238631823182
:100C3A002F228631823132228631400112147E01FE
:100C4A003810400199150130F0000030F10084316C
:100C5A0022248631BE30F2008830F30083314223E9
:100C6A008631F6018531AD258631003A03193E2ECB
:100C7A003F2E4A2E4001991199159930F200883079
:100C8A00F300833142238631522EE730F200883056
:100C9A00F300833142238631512E4001991182316A
:100CAA005F22863140014B08CF004A08CE009915D1
:100CBA004F0883310123863140014E0883310123D5
:100CCA00863140014F08CD004E08CC000730CD36A2
:100CDA00CC0C890B6C2E4C08CE004D08CF00AC30E2
:100CEA00B8008830B9004F08BB004E08BA008331FB
:100CFA001F23863110304001CD003930CC000D3031
:100D0A00890B852ECC0B852ECD0B852E0032522ECB
:100D1A00803102284001220886008701403FA50051
:100D2A00413FA60025088400260885001200253ABE
:100D3A00031DA02EA12ED22F220886008701013082
:100D4A00810741310318810AD001D1010030E20044
:100D5A00FF30D200FF30D300220886008701403FCF
:100D6A00AC00413FAD002C0884002D08850012001C
:100D7A00753A031DC12EC22E352F2308860024087A
:100D8A00870001088400850102308107003FAE0018
:100D9A00013FAF002C08013EA50000302D3DA60002
:100DAA002208860087012508C03F2608C13F2C2F4C
:100DBA002030B2000130B2023208A03E860087011C
:100DCA000A30F0000030F1002F08F3002E08F2007C
:100DDA008431522486317008303E81000A30F00096
:100DEA000030F10040012F08F3002E08F200843190
:100DFA00BD24863171084001AF007008AE002E088C
:100E0A002F040319092F0A2F252F3208031D0E2F2D
:100E1A000F2FDF2E252F3208A03E860087010108FA
:100E2A00A500A6012508F2002608F3002108F5000E
:100E3A002008F40085315125863101304001B2077E
:100E4A0020303206031D2A2F2B2F102FEC2F2C08AF
:100E5A0084002D0885000008753A0319DD2E352F08
:100E6A00A901220886008701403FA500413FA6004C
:100E7A0025088400260885001200733A031D462FB0
:100E8A00472F522F220886008701013081074131FE
:100E9A000318810A0130A900942F220886008701CD
:100EAA00403FA500413FA60025088400260885008A
:100EBA0012006C3A031D622F632F942F22088600BA
:100ECA008701403FA500413FA60001302507840065
:100EDA0026080318013E850012006C3A031D762F7E
:100EEA00772F942F220886008701403FA500413FB3
:100EFA00A60002302507840026080318013E850053
:100F0A001200733A031D8A2F8B2F942F2208860012
:100F1A0087010330810741310318810A4F2F2908BD
:100F2A000319982F992FC82F2308860024088700B1
:100F3A0001088400850102308107003FAA00013FB1
:100F4A00AB00BE2F2A0884002B0885000008A500E4
:100F5A00A6012508F2002608F3002108F50020085A
:100F6A00F40085315125863101304001AA0700304D
:100F7A00AB3D2A0884002B0885001200031DC62FEA
:100F8A00C72FA72FEC2F40012208860087010130C6
:100F9A00810741310318810AEC2F22088600870154
:100FAA00403FA500413FA600250884002608850089
:100FBA000008A700A8012708F2002808F300210862
:100FCA00F5002008F400853151258631C82F080024
:100FDA00503084000030850013308231502287312E
:100FEA00A0308400003085002030823150228731C1
:100FFA0040018631192E5934033400340034F83450
:10100A0003343D34023445340234E33402340034C8
:10101A000034003400340034003400340034003426
:10102A000034003400340034003400340034003416
:10103A000034003400340034003400340034003406
:10104A000034003400347C340234883402340034EE
:10105A00003400340034763403340034003400346D
:10106A0000344134023400340034F234023400349F
:10107A000034323402340034003400340034003492
:10108A0000340034003400340034003400340034B6
:10109A0000340034003400340034003400340034A6
:1010AA0000340034003494340234A034023400345E
:1010BA0000340034003400340A3410341734003455
:1010CA0064340034103401340034523465346334E7
:1010DA006534693476346534643420346434613474
:1010EA00743461343A342034253475340A34003483
:1010FA005634023400340034AD340534003400343C
:10110A00D234033400340034003400340034003460
:10111A000034003400340034003400340034003425
:10112A00003400340034003454344D3450343134F3
:10113A00323432345F3449346E346934743420348E
:10114A0064346F346E3465340A340D3400345434E4
:10115A0065346D3470346534723461347434753482
:10116A00723465343A342034253475340A340D34F3
:10117A0000344D346F34643465343A3420346D3479
:10118A00613473347434653472340A340D3400347F
:10119A00533450344934203452346534613464341D
:1011AA0020344534723472346F3472340034453426
:1011BA00723472346F3472343A34203425347334CE
:1011CA000A340034683461346C3474340A340D34AB
:0211DA000034DF
:020000040001F9
:0A000E00FA37FF3D9F3FFF3FFF3F21
:00000001FF
