:08000000803102288731ED2F49
:10045E000800080054019D17080054019E1608005C
:10046E0054011D121D16080042011D121D16080012
:10047E00700842019A000800700854019A000800A2
:10048E004E010F0E890C0139080071084001E10080
:10049E007008E0000800640080010131890B532AC6
:1004AE0000344E0119100F1043018F01900192017B
:1004BE008D01080084318524823140014008CB0033
:1004CE003F08CA000800603051018D0040308F0097
:1004DE00910104309300920108004E010C1000307F
:1004EE00F0000030F10082314C2282310800700899
:1004FE0071040319832A842A892A71084001D700BE
:10050E007008D60008007008710403198F2A902A0B
:10051E00952A71084001D5007008D40008007008B3
:10052E00710403199B2A9C2AA12A71084001DD003F
:10053E007008DC000800700871040319A72AA82AA5
:10054E00AD2A71084001DB007008DA000800823124
:10055E0047228231003A0319B52AB62AAE2A8331D0
:10056E00F923823108007708F8007608F900783010
:10057E00F0000230F1000030F2008331D3238231DB
:10058E000800DC304001B8008830B9003E08BB00DE
:10059E003D08BA00833121238231D42A0800F100AC
:1005AE008231F4228231003A0319DE2ADF2AD72A59
:1005BE007108F0008231432282310800F0014E01B1
:1005CE000F1EEA2AEB2AF22A42019E1EEF2AF02A79
:1005DE00F22A0130F00070080800F0014E010F1FE2
:1005EE00F92AFA2A012B54019E1EFE2AFF2A012BFC
:1005FE000130F00070080800F1008231E5228331ED
:10060E00003A03190B2B0C2B042B7108F0008231CE
:10061E003F2283310800F1008231F4228331003A07
:10062E0003191A2B1B2B132B7108F0008231432256
:10063E00833108003A304001BC000030B300B400F2
:10064E003908B6003808B5003C30B7008331B32303
:10065E008331080082316A2283318431F824833158
:10066E0083317723833183315B2383318231582267
:10067E0083318231742283310800512B7208840039
:10068E007308850000088231D62283310130F207CB
:10069E000030F33D72088400730885001200031DBC
:1006AE00592B5A2B452B0800483054019F0090308F
:1006BE009D0026309E0019309B009C012F30F000CB
:1006CE000230F1008231962283313730F000023051
:1006DE00F1008231A22283314001DE01DF010800E8
:1006EE00483042019F0090309D0026309E003830E9
:1006FE009B0001309C003030F0000230F10082315E
:10070E007E2283313B30F0000230F10082318A22AA
:10071E0083314001D801D9010800F401F501701CA4
:10072E00992B9A2B9E2B7208F4077308F53D013016
:10073E00F235F30D890B9F2B0130F136F00C890B3E
:10074E00A42B70087104031DAD2BAE2B962B7508D0
:10075E00F1007408F000080040013608FD0035086D
:10076E00FC00C62B40013408A1003308A0007C30E9
:10077E00A2003708A300A40186318F2683317C089E
:10078E0084007D0885001200031DCE2BCF2BB92BC4
:10079E004001B301B40108007008F5007208F400BE
:1007AE007108F300F22B75088600870101084301DA
:1007BE008C004E010F1CE42BE52BE02B0F1075085F
:1007CE008600870143010C0881000130F5070130D6
:1007DE00F3020030F43B73087404031DF72BF82B5F
:1007EE00DA2B08004001D801D90142019D1C002CD2
:1007FE00012C0E2C40015815540855040319082CD1
:10080E00092C0E2C55088A0054080A008431420126
:10081E001D1D122C132C202C4001D81456085704E1
:10082E0003191A2C1B2C202C57088A0056080A0074
:10083E008431420119080800F401F501442C4001ED
:10084E001B150830F3009D30F2000630890B2D2C5D
:10085E00F20B2D2CF30B2D2C40011B110830F30045
:10086E009D30F2000630890B3A2CF20B3A2CF30B2A
:10087E003A2C0130F4070030F53D7508803AF2004D
:10088E007108803A7202031D4E2C70087402031C0C
:10089E00512C522C262C0800700871040319582C68
:1008AE00592C802C0130F400632C0130F035F10D01
:1008BE00890B5D2C0130F407F11F662C672C5C2C24
:1008CE0071087302031D6D2C70087202031C702CCC
:1008DE00712C752C7008F2027108F33B0130F13661
:1008EE00F00C890B762C0130F402031D7F2C802C2A
:1008FE00672C7308F1007208F000080012304001F6
:10090E00C8003430C9004830F0000230F100003029
:10091E00F2008331D3238431FF304001C100FF3018
:10092E00C20000304206031D9E2C48304106031DB6
:10093E00A12CA22CA92CCD30BD008830BE00823156
:10094E00C822843140014908C100C2014808C300D1
:10095E00C4014308C400C30141084304C600420851
:10096E004404C7004708C0004608BF000800F40151
:10097E00F501700871040319C52CC62CF32C013037
:10098E00F600D02C0130F035F10D890BCA2C013058
:10099E00F607F11FD32CD42CC92C0130F435F50DEC
:1009AE00890BD52C71087302031DDF2C700872029F
:1009BE00031CE22CE32CE82C7008F2027108F33BC6
:1009CE0074140130F136F00C890BE92C0130F6026B
:1009DE00031DF22CF32CD42C7508F1007408F000D2
:1009EE0008004001980199019A019B019C01FF307A
:1009FE00920097309300AF309400F23095000F3094
:100A0E009600FE307E01B8008730C3002D30CE0038
:100A1E00F130D9000730E400B901C401CF01DA0189
:100A2E00E501BA01C501D001DB01E601FF30BB00D3
:100A3E00FF30C600FF30D100FF30DC000730E7008A
:100A4E00FF30BC00FF30C700FF30D200FF30DD00AA
:100A5E000F30E80017307D01CB000C30C600193086
:100A6E00CD000F307E01A60016309E001130A8007A
:100A7E000D307D01C50015307E019D00BD01BE010A
:100A8E00BF01C801C901CA01D301D401D501E901D1
:100A9E00EA01EB010800740875040319572D582D4F
:100AAE005E2D74087504031D5D2D5E2D632D720879
:100ABE00833112238531AD2D7408860075088700A9
:100ACE0049311600010403196D2D6E2D8E2D7408FB
:100ADE008600750887004931403FF600413FF70018
:100AEE0074088600750887004231403FF800413F88
:100AFE00F9007908803AFA007708803A7A02031DE5
:100B0E008A2D7608780203188D2D8E2DAD2D740842
:100B1E0086007508870042317408840075088500C8
:100B2E00003FF600013FF700403F76078400413F4B
:100B3E00773D85007208800074088600750887006E
:100B4E0042310130810741310318810A0800430107
:100B5E00901AB22DB32D172E7608F700F8017708EC
:100B6E00F0007808F1000530F2000030F300833118
:100B7E00942385316030700784000830713D8038D1
:100B8E008500000843018F007608F700F80177080A
:100B9E00F0007808F1000530F2000030F3008331E8
:100BAE00942385316130700784000830713D8038A0
:100BBE0085000008430190007608F700F8017708D9
:100BCE00F0007808F1000530F2000030F3008331B8
:100BDE00942385316230700784000830713D80386F
:100BEE0085000008430192007608F700F8017708A7
:100BFE00F0007808F1000530F2000030F300833188
:100C0E00942385316330700784000830713D80383D
:100C1E008500000843018D0090160130F900182E52
:100C2E00F90179080800833131238631823131226E
:100C3E008631823134228631400112147E01381001
:100C4E00400199150130F0000030F1008431232469
:100C5E008631BE30F2008830F30083314423863172
:100C6E00F6018531AE258631003A03193F2E402E0E
:100C7E004B2E4001991199159930F2008830F300EE
:100C8E00833144238631532EE730F2008830F3004F
:100C9E00833144238631522E4001991182316122D3
:100CAE00863140014B08CF004A08CE0099154F08F7
:100CBE0083310323863140014E088331032386316D
:100CCE0040014F08CD004E08CC000730CD36CC0C7D
:100CDE00890B6D2E4C08CE004D08CF00AC30B800FD
:100CEE008830B9004F08BB004E08BA00833121236B
:100CFE00863102304001CD008630CC009930890B10
:100D0E00862ECC0B862ECD0B862E532E80310228AE
:100D1E004001220886008701403FA500413FA60002
:100D2E0025088400260885001200253A031DA02EF2
:100D3E00A12ED22F22088600870101308107413172
:100D4E000318810AD001D1010030E200FF30D20039
:100D5E00FF30D300220886008701403FAC00413FA0
:100D6E00AD002C0884002D0885001200753A031D75
:100D7E00C12EC22E352F23088600240887000108B5
:100D8E008400850102308107003FAE00013FAF00B5
:100D9E002C08013EA50000302D3DA600220886003D
:100DAE0087012508C03F2608C13F2C2F2030B200F6
:100DBE000130B2023208A03E860087010A30F000F0
:100DCE000030F1002F08F3002E08F2008431532476
:100DDE0086317008303E81000A30F0000030F1009C
:100DEE0040012F08F3002E08F2008431BE24863114
:100DFE0071084001AF007008AE002E082F040319D1
:100E0E00092F0A2F252F3208031D0E2F0F2FDF2E2D
:100E1E00252F3208A03E860087010108A500A601F5
:100E2E002508F2002608F3002108F5002008F4003A
:100E3E0085315225863101304001B207203032060D
:100E4E00031D2A2F2B2F102FEC2F2C0884002D087A
:100E5E0085000008753A0319DD2E352FA9012208E9
:100E6E0086008701403FA500413FA600250884006B
:100E7E00260885001200733A031D462F472F522F66
:100E8E002208860087010130810741310318810A4B
:100E9E000130A900942F220886008701403FA5004B
:100EAE00413FA600250884002608850012006C3AF2
:100EBE00031D622F632F942F220886008701403F67
:100ECE00A500413FA600013025078400260803181F
:100EDE00013E850012006C3A031D762F772F942F5A
:100EEE00220886008701403FA500413FA600023040
:100EFE002507840026080318013E85001200733A68
:100F0E00031D8A2F8B2F942F220886008701033012
:100F1E00810741310318810A4F2F29080319982F91
:100F2E00992FC82F23088600240887000108840003
:100F3E00850102308107003FAA00013FAB00BE2FA2
:100F4E002A0884002B0885000008A500A6012508A4
:100F5E00F2002608F3002108F5002008F400853180
:100F6E005225863101304001AA070030AB3D2A08D8
:100F7E0084002B0885001200031DC62FC72FA72F34
:100F8E00EC2F400122088600870101308107413194
:100F9E000318810AEC2F220886008701403FA50026
:100FAE00413FA60025088400260885000008A700FA
:100FBE00A8012708F2002808F3002108F5002008F0
:100FCE00F400853152258631C82F08005030840038
:100FDE00003085001330823152228731A0308400D8
:100FEE000030850020308231522287314001863117
:100FFE001A2E7734033400340034F93403343F347A
:10100E00023447340234E534023400340034003400
:10101E000034003400340034003400340034003422
:10102E000034003400340034003400340034003412
:10103E000034003400340034003400340034003402
:10104E0000347E3402348A340234003400340034E6
:10105E0000345B3403340034003400340034433441
:10106E00023400340034F4340234003400343434A6
:10107E0002340034003400340034003400340034C0
:10108E0000340034003400340034003400340034B2
:10109E0000340034003400340034003400340034A2
:1010AE00003496340234A234023400340034003456
:1010BE00003400340A3410341734003464340034ED
:1010CE001034013400345234653463346534693479
:1010DE007634653464342034643461347434613469
:1010EE003A342034253475340A34003458340234FA
:1010FE0000340034AE34053400340034D3340334B9
:10110E000034003400340034003400340034003431
:10111E000034003400340034003400340034003421
:10112E000034003454344D3450343134323432348B
:10113E005F3449346E3469347434203464346F341B
:10114E006E3465340A340D340034543465346D34E1
:10115E007034653472346134743475347234653479
:10116E003A342034253475340A340D3400344D3479
:10117E006F34643465343A3420346D3461347334EE
:10118E007434653472340A340D34003453345034AC
:10119E004934203452346534613464342034453457
:1011AE00723472346F3472340034453472347234A3
:1011BE006F3472343A342034253473340A340034A4
:0E11CE00683461346C3474340A340D340034E7
:020000040001F9
:0A000E00FA37FF3D9F3FFF3FFF3F21
:00000001FF
