:1000000080313728013401347E1480310B1F0928D8
:100010000A2835284E01961E0E280F2817288C1EF8
:100020001228132817288731B72780313528191E41
:100030001A281B2826280F1E1E281F2826284101A3
:100040005B088A005A080A0080313528991E292841
:100050002A2835288F1E2D282E2835284101590899
:100060008A0058080A00803135287E100900803146
:100070003928803102208031EE0080310320803128
:10008000EF00F601F701F801F9015A308400003061
:10009000850014308731FA278031A0308400003089
:1000A000850036308731FA278031203084000130D6
:1000B000850020308731FA2780317E104001813160
:1000C000C52940012B0886008701403FAE00413F13
:1000D000AF002E0884002F0885001200253A031D6A
:1000E00072287328AA292B0886008701013081070E
:1000F00041310318810A4101C001C10100304001B2
:10010000E000FF304101C200FF30C30040012B0876
:1001100086008701403FB500413FB60035088400A6
:10012000360885001200753A031D972898280D2976
:100130002C0886002D088700010884008501023004
:100140008107003FB700013FB8003508013EAE000F
:100150000030363DAF002B08860087012E08C03FD7
:100160002F08C13F04292030BB000130BB023B08EF
:10017000203E8600013087000A30A0000030A10038
:100180003808A3003708A2008431F32480314001ED
:100190002008303E81000A30A0000030A10038085D
:1001A000A3003708A20084314D248031400121088A
:1001B000B8002008B700370838040319E028E12800
:1001C000FD283B08031DE528E628B528FD283B0847
:1001D000203E8600013087000108AE00AF012E08E6
:1001E000A0002F08A1002A08A3002908A20083313B
:1001F0003A23803101304001BB0720303B06031D0C
:1002000002290329E728C429350884003608850017
:100210000008753A0319B3280D29B2012B0886008E
:100220008701403FAE00413FAF002E0884002F08F9
:1002300085001200733A031D1E291F292A292B0845
:10024000860087010130810741310318810A01309E
:10025000B2006C292B0886008701403FAE00413F69
:10026000AF002E0884002F08850012006C3A031D91
:100270003A293B296C292B0886008701403FAE00B4
:10028000413FAF0001302E0784002F080318013EC4
:10029000850012006C3A031D4E294F296C292B084A
:1002A00086008701403FAE00413FAF0002302E077D
:1002B00084002F080318013E85001200733A031DC5
:1002C000622963296C292B08860087010330810786
:1002D00041310318810A272932080319702971292D
:1002E000A0292C0886002D088700010884008501BC
:1002F00002308107003FB300013FB4009629330864
:100300008400340885000008AE00AF012E08A0006C
:100310002F08A1002A08A3002908A20083313A234C
:10032000803101304001B3070030B43D3308840010
:10033000340885001200031D9E299F297F29C429A6
:1003400040012B08860087010130810741310318E5
:10035000810AC4292B0886008701403FAE00413F37
:10036000AF002E0884002F0885000008B000B101FE
:100370003008A0003108A1002A08A3002908A20023
:1003800083313A238031A02908008631EF2681315C
:100390008F31832781318F31862781317E0138105B
:1003A0004312C3124E13CE135910D910D912400163
:1003B0001210131293161413941715109514951602
:1003C0008B170B179C30F4000F30F5008F31A827E6
:1003D00081314001A4018231CA2281318F318927C4
:1003E000813140010C1CF529F629572A0130F4000F
:1003F0000030F5008431882481316C304001A00048
:100400008730A1008631C026813140019B128F3197
:10041000BF278131400157084101DF0040015608E4
:100420004101DE0040019B1641015F0887313B27F7
:10043000813141015E0887313B27813141015F08ED
:100440004001D90041015E084001D8000730D9368B
:10045000D80C890B272A58084101DE0040015908B1
:100460004101DF0017304001C4008730C500410161
:100470005F084001C70041015E084001C6008731A6
:100480005C27813102304001D9008630D800993094
:10049000890B482AD80B482AD90B482AC330400177
:1004A000D800CD30890B522AD80B522A052AC630E3
:1004B000A0008730A1008631C0268131400193160B
:1004C0004101DC0105304001A0008730A1008631E8
:1004D000C02681318F317A2781318F317D2781315B
:1004E0008F3180278131D9304001A0008630A100B2
:1004F0008631C02681316F30F4000630F5008F312F
:10050000DC2781318B170B174C304001A00087305E
:10051000A1008631C02681314001630843018C006F
:1005200001304101DD00AA2A40018F1A982A992A38
:100530009C2A01304101DC0041015C080319A12A19
:10054000A22AAA2A40018F1EA62AA72AAA2A410166
:10055000DD01AF2A4E010F1CAE2AAF2A942A4101B9
:100560005D080319B42AB52AC22A4E010F104001B2
:10057000620843018C00C22A40018F1EC02AC12A92
:10058000C22A8C2A4E010F1CC62AC72ABC2A8C2AD2
:10059000803137284301901ACE2ACF2A392B4001C7
:1005A0002408A500A6012508A0002608A100053002
:1005B000A2000030A3008531F72582310B304001C5
:1005C000200784001030213D803885000008430159
:1005D0008F0040012408A500A6012508A0002608D8
:1005E000A1000530A2000030A3008531F72582313B
:1005F0000C304001200784001030213D80388500F8
:1006000000084301900040012408A500A601250828
:10061000A0002608A1000530A2000030A30085310B
:10062000F72582310D304001200784001030213D34
:100630008038850000084301920040012408A5008D
:10064000A6012508A0002608A1000530A200003060
:10065000A3008531F72582310E3040012007840048
:100660001030213D80388500000843018D00901630
:10067000392B08004001220823040319402B412B89
:10068000472B22082304031D462B472B4C2B200805
:1006900087318A278331972B220886002308870019
:1006A0004931160001040319562B572B772B2208CA
:1006B0008600230887004931403FA400413FA50040
:1006C00022088600230887004231403FA600413FB0
:1006D000A7002708803AA8002508803A2802031DB1
:1006E000732B240826020318762B772B972B4001B7
:1006F000220886002308870042312208840023084C
:100700008500003FA400013FA500403F240784006E
:10071000413F253D850020088000220886002308EF
:10072000870042310130810741310318810A0800F6
:100730004001980199019A019B019C01FF309200B0
:10074000EF309300BF309400FE3095000F309600DC
:10075000FE307E01B800C730C3003F30CE00DC3031
:10076000D9000730E400B901C401CF01DA01E50185
:10077000BA01C501D001DB01E601FF30BB00FF304B
:10078000C600FF30D100FF30DC000730E700FF304B
:10079000BC00FF30C700FF30D200FF30DD000F305B
:1007A000E80017307D01CB000B30C6001D30C700BC
:1007B0001930CD000F307E01A60016309C0011309C
:1007C000A8000D307D01C50015307E019D00BD01E2
:1007D000BE01BF01C801C901CA01D301D401D501BD
:1007E000E901EA01EB0108007735A03E86008701A8
:1007F0000030C03FC13F42019D1CFF2B002C112C3B
:100800007735A03E86008701011541014A084B0457
:1008100003190B2C0C2C112C4B088A004A080A00D7
:10082000843142011D1D152C162C272C7735A03E36
:1008300086008701811441014C084D040319212CC5
:10084000222C272C4D088A004C080A0084314201D2
:100850001908F2007708013E0739F300730876069D
:10086000031D332C342C352C402C7708B03E8600E9
:100870008701720881007308F70001304001EC071E
:1008800041014E084F040319462C472C4C2C4F08AD
:100890008A004E080A00843108004001A501A60123
:1008A000200821040319552C562C832C0130A40058
:1008B000602C0130A035A10D890B5A2C0130A40702
:1008C000A11F632C642C592C0130A535A60D890B72
:1008D000652C21082302031D6F2C20082202031C13
:1008E000722C732C782C2008A2022108A33B25141B
:1008F0000130A136A00C890B792C0130A402031D14
:10090000822C832C642C2608A1002508A000080056
:100910004001A201A301AF2C40011B15083040018A
:10092000A1009D30A0000530890B942CA00B942CC5
:10093000A10B942C003240011B1108304001A10092
:100940009D30A0000530890BA32CA00BA32CA10B7C
:10095000A32C003201304001A2070030A33D230840
:10096000803AA0007508803A2002031DB92C740853
:100970002202031CBC2CBD2C8C2C08004E019912A9
:10098000F4304101D8000330D9004E0119128B30E8
:100990004101DA000630DB00483042019F00903010
:1009A0009D0026309E0038309B0001309C0078303E
:1009B000F4000F30F5008F31E82784319030F400D7
:1009C0000F30F5008F31F42784314101D201D3017A
:1009D000F9014001ED010830F800F701F601EC01E2
:1009E0004E01991608004001200821040319F92C32
:1009F000FA2C212D0130F400042D0130A035A10D79
:100A0000890BFE2C0130F407A11F072D082DFD2CAA
:100A100021082302031D0E2D20082202031C112D84
:100A2000122D162D2008A2022108A33B0130A13669
:100A3000A00C890B172D0130F402031D202D212D50
:100A4000082D2308A1002208A0000800BE340434A9
:100A500000340034A6340634D7340534003400346E
:100A6000AE340F340034003480340F34003400349A
:100A700000340034003400340034003400340034D6
:100A800000340034003400340034003400340034C6
:100A900000340034DC340F3400340034E8340F34D4
:100AA000F4340F3400340034003400343634063467
:100AB000003400340034003498340F3400340034EF
:100AC000A83407340034003486340F340034003442
:100AD0000034003400340034003400340034003476
:100AE0000034003400340034003400340034003466
:100AF000003400340034003400340034EE34073461
:100B0000E234073400340034003400345230400101
:100B1000A0000230A1000030A2008531B52585314A
:100B200040015308CD00CE015208CF00D0014F083C
:100B3000D000CF014D084F04D4004E085004D5001A
:100B4000540A031DA72D550A031DA72DA82DAF2D4F
:100B50007B30C9008730CA008731D42785314001F6
:100B60005508CC005408CB00080040012008A5001F
:100B70002208A4002108A300D02D250886008701A3
:100B8000010843018C004E010F1CC72DC82DC32D39
:100B90000F1001304001A5070130A3020030A43B33
:100BA00023082404031DD52DD62DBD2D08004E018C
:100BB000191ADB2DDC2DE02D740842019A00F42D6A
:100BC00078080319E42DE52DF42D7908B83E860048
:100BD0008701740881007908013E0739F50075081E
:100BE000F90019120130F8024E0119160800F4013B
:100BF000F5014001201CFD2DFE2D022E2208F407D8
:100C00002308F53D0130A235A30D890B032E0130D9
:100C1000A136A00C890B082E20082104031D112EDB
:100C2000122EF92D7508A1007408A00008004001DB
:100C30003F08C3003E08C200292E3D08AA003C0818
:100C4000A9004230AB004008AC00AD01803161200A
:100C50008631400142088400430885001200031DCC
:100C6000322E332E1D2EBC01BD0108004830540128
:100C70009F0090309D0026309E0038309B00013050
:100C80009C007730F4000F30F5008731EE27863175
:100C90008C30F4000F30F5008731E22786314101B6
:100CA000D401D5010800B6340F3400340034CA34FE
:100CB000023400340034B5340534003400340034D8
:100CC0000034003400340034003400340034003484
:100CD0000034003400340034003400340034003078
:100CE000410149020B3003194802031C782E792E6A
:100CF000812E8631A62686314001E3000130E100D5
:100D0000872E8631A62686314001E200E1018F312F
:100D1000942786310800083078020318902E912E0F
:100D2000A32E40016D08B83E8600870101084201EC
:100D30009A0040016D08013E0739F0007008ED008F
:100D40000130F807A52E4E01191208007608B03EB2
:100D5000860087010108F1007608013E0739F0009E
:100D60007008F6004E01991240016C080319B92E63
:100D7000BA2EBC2E0130EC024E0199167108080003
:100D8000CE2E20088400210885000008873199278D
:100D9000863101304001A0070030A13D400120080C
:100DA0008400210885001200031DD72ED82EC12EE5
:100DB00008007234653467346934733474346534CC
:100DC000723469346E3467342034683461346E347C
:100DD00064346C34653472340A340D3400348F3129
:100DE000C827863183319823863187312927863178
:100DF0008431BE2486318631362686318F31B6273E
:100E000086318F31D2278631080065346E346134E3
:100E100062346C3469346E3467342034753473341E
:100E200061347234743431340A340D34003454343F
:100E300065346D34703465347234613474347534AF
:100E4000723465343A342034253475340A340D3420
:100E500000345C304B019D009C0174309F00793060
:100E60004101D6000F30D7004E018C129616873004
:100E70004B019E0008004001A0008F31AE27873152
:100E8000003A0319442F452F3D2F40012008F4005C
:100E90008531D7258731080065346E347434653464
:100EA000723469346E34673420346C346F346F3488
:100EB00070340A340D34003446304001C80000302C
:100EC000BC00BD004508BF004408BE004830C0005B
:100ED00086311726873108004D346F346434653409
:100EE0003A3420346D34613473347434653472347C
:100EF0000A340D34003453345034493420345234DD
:100F000065346134643420344534723472346F345F
:100F100072340034F5008731A8278731003A03196D
:100F2000922F932F8B2F7508F4008F3198278731DC
:100F30000800F5008731A8278731003A0319A12F4F
:100F4000A22F9A2F7508F4008F3198278731080057
:100F5000F4014E010F1FAD2FAE2FB52F54019E1E71
:100F6000B22FB32FB52F0130F400740808004101EF
:100F7000560857040319BD2FBE2FC32F57088A00E8
:100F800056080A0087314E018C1208004D346F3428
:100F9000643465343A34203473346C3461347634D8
:100FA00065340A340D34003400304001C400903000
:100FB000C5004A08C7004908C60087315C27873149
:100FC000E02F0800740875040319E72FE82FED2FB0
:100FD00075084001DB007408DA0008007408750425
:100FE0000319F32FF42FF92F75084001DD00740861
:100FF000DC000800640080010131890BFB2F003404
:101EEE0008000800080042019D17080042011D1657
:101EFE00080042019E16080054019D170800540167
:101F0E009E1608004B019E17080054011D121D1647
:101F1E00080042011D121D1608004101C801C90129
:101F2E000800740854019A00080001304101C807E6
:101F3E000030C93D080075084001DF007408DE005E
:101F4E00080075084101D7007408D600080078080B
:101F5E00031DB22FB42F0130B52F003008004E01F3
:101F6E0019100F1043018F01900192018D0108008D
:101F7E00853186258F3140014C08D7004B08D6009D
:101F8E000800603051018D0040308F009101043007
:101F9E009300920108004E010C100030F400003046
:101FAE00F5008F31A2278F310800740875040319CC
:101FBE00E12FE22FE72F75084101CF007408CE0004
:101FCE000800740875040319ED2FEE2FF32F750812
:101FDE004101CD007408CC00080074087504031983
:101FEE00F92FFA2FFF2F75084101CB007408CA0094
:101FFE0008004534723472346F3472343A342034FB
:10200E00253473340A34003400340434103401346B
:0C201E0000346434043410340034003406
:020000040001F9
:0A000E00FA37FF3D9F3FFF3FFF3F21
:00000001FF
