:1000000080313728080001347E1480310B1F092805
:100010000A2835284E01961E0E280F2817288C1EF8
:100020001228132817288F31292780313528191EC7
:100030001A281B2826280F1E1E281F2826284101A3
:1000400064088A0063080A0080313528991E29282F
:100050002A2835288F1E2D282E2835284101620890
:100060008A0061080A00803135287E10090080313D
:100070003928803103208031EA00FD015F3084009F
:10008000003085000B308E31D3268031A0308400C3
:10009000003085003F308E31D326803120308400FF
:1000A0000130850020308E31D32680317E10400112
:1000B0008231122A40012F0886008701403FB2009A
:1000C000413FB30032088400330885001200253A0E
:1000D000031D6B286C28F7292F0886008701013043
:1000E000810741310318810A4101C001C10100307B
:1000F0004001DF00FF304101C200FF30C30040017A
:100100002F0886008701403FBA00413FBB003A08F4
:1001100084003B0885001200783A03199028912842
:100120009B283A0884003B0885001200753A031D9D
:100130009A289B285A293008860031088700010830
:100140008400850102308107003FBC00013FBD00F3
:100150003A08013EB20000303B3DB3002F08860054
:1001600087013208C03F3308C13F4E292030C0000C
:100170000130C0024008203E8600013087000A306E
:10018000A2000030A3003D08A5003C08A400853172
:10019000EE25803140012208303E81000A30A20065
:1001A0000030A3003D08A5003C08A4008531462589
:1001B000803140012308BD002208BC003C083D04FA
:1001C0000319E328E42800294008031DE828E9284A
:1001D000B82800294008203E860001308700010829
:1001E000B200B3013208A4003308A5002E08A7000E
:1001F0002D08A6008331A423803101304001C007BF
:1002000020304006031D05290629EA28112A20303E
:10021000C0003C080F39B9000A303902031811290F
:10022000122915293030B90717295730B90701307D
:10023000C0024008203E8600013087003908810056
:100240000430BD36BC0C890B21293C083D04031940
:100250002A292B2947294008031D2F29302909293C
:1002600047294008203E8600013087000108B2007F
:10027000B3013208A4003308A5002E08A7002D08FA
:10028000A6008331A423803101304001C007203013
:100290004006031D4C294D293129112A3A088400B2
:1002A0003B0885000008753A0319B6280D3A031972
:1002B00007295A29B6012F0886008701403FB2005E
:1002C000413FB30032088400330885001200733ABE
:1002D000031D6B296C2977292F08860087010130BF
:1002E000810741310318810A0130B600B9292F086E
:1002F00086008701403FB200413FB30032088400CE
:100300003308850012006C3A031D87298829B92912
:100310002F0886008701403FB200413FB300013003
:100320003207840033080318013E850012006C3A3E
:10033000031D9B299C29B9292F0886008701403F6E
:10034000B200413FB3000230320784003308031883
:10035000013E85001200733A031DAF29B029B92967
:100360002F08860087010330810741310318810A75
:10037000742936080319BD29BE29ED2930088600E5
:100380003108870001088400850102308107003FA1
:10039000B700013FB800E32937088400380885001A
:1003A0000008B200B3013208A4003308A5002E08EB
:1003B000A7002D08A6008331A4238031013040011D
:1003C000B7070030B83D37088400380885001200B0
:1003D000031DEB29EC29CC29112A40012F088600A6
:1003E00087010130810741310318810A112A2F0842
:1003F00086008701403FB200413FB30032088400CD
:10040000330885000008B400B5013408A40035089D
:10041000A5002E08A7002D08A6008331A423803153
:10042000ED2908008F31EA2782318E31B7268231DB
:100430008E31BA2682317E0138104312C3124E1318
:10044000CE135910D910D91240011210131293165D
:10045000141394171510951495168B170B17CD3090
:10046000A2000E30A3008E31EB2682314001A8019C
:100470008331342382318E31BD26823140010C1C00
:10048000422A432AA42A0130A2000030A300853169
:10049000B825823134304001A4009030A500873166
:1004A000D827823140019B128E31FD2682314001D6
:1004B0005C084101EA0040015B084101E90040019C
:1004C0009B1641016A088F31A427823141016908D6
:1004D0008F31A427823141016A084001DE004101C9
:1004E00069084001DD000730DE36DD0C890B742A17
:1004F0005D084101E90040015E084101EA00123057
:100500004001C9009030CA0041016A084001CC0096
:10051000410169084001CB008F31832782310230CD
:100520004001DE008630DD009930890B952ADD0B15
:10053000952ADE0B952AC3304001DD00CD30890BB2
:100540009F2ADD0B9F2A522A5230A4009030A5002A
:100550008731D8278231400193160030A4009030B3
:10056000A5008731D82782318E31AE2682318E3177
:10057000B12682318E31B4268231F1304001A4009F
:100580008730A5008731D827823121304001A20071
:100590000630A3008F31382782318B170B17243098
:1005A0004001A4009030A5008731D8278231343033
:1005B0004101E7001230E800D8304001A2000030CD
:1005C000A300E530A400853103258231003A0319E8
:1005D000EA2AEB2A002B41016608E8006508E700DB
:1005E00075304001C9009030CA00410168084001DF
:1005F000CC00410167084001CB008F318327823155
:100600004101680843018C0001304001E200132BD6
:1006100040018F1A0C2B0D2BDC2A8F1E102B112B57
:10062000132BE201182B4E010F1C172B182B082B34
:100630004001620803191D2B1E2B2C2B4E010F109D
:100640004101670843018C002C2B40018F1E292B90
:100650002A2B2C2BE201DC2A4E010F1C302B312BD4
:10066000252BDC2A803137284301901A382B392B6F
:10067000A32B40012808A900AA012908A2002A08E2
:10068000A3000530A4000030A5008731292783315D
:100690006B304001220784001030233D80388500F4
:1006A000000843018F0040012808A900AA01290879
:1006B000A2002A08A3000530A4000030A50087315D
:1006C000292783316C304001220784001030233DFC
:1006D0008038850000084301900040012808A900E7
:1006E000AA012908A2002A08A3000530A4000030AE
:1006F000A5008731292783316D304001220784000E
:100700001030233D803885000008430192004001ED
:100710002808A900AA012908A2002A08A300053078
:10072000A4000030A5008731292783316E304001B5
:10073000220784001030233D8038850000084301E3
:100740008D009016A32B08004001260827040319EA
:10075000AA2BAB2BB12B26082704031DB02BB12BE2
:10076000B62B24088F31B5278331012C260886004B
:10077000270887004931160001040319C02BC12B3B
:10078000E12B26088600270887004931403FA80052
:10079000413FA90026088600270887004231403FD4
:1007A000AA00413FAB002B08803AAC002908803AF0
:1007B0002C02031DDD2B28082A020318E02BE12B55
:1007C000012C4001260886002708870042312608B0
:1007D000840027088500003FA800013FA900403F92
:1007E00028078400413F293D850024088000260811
:1007F0008600270887004231013081074131031804
:10080000810A08004001980199019A019B019C010D
:10081000FF309200EF309300BF309400FE3095001F
:100820000F309600FE307E01B800C730C3003F3065
:10083000CE00DC30D9000730E400B901C401CF019B
:10084000DA01E501BA01C501D001DB01E601FF30A3
:10085000BB00FF30C600FF30D100FF30DC000730A6
:10086000E700FF30BC00FF30C700FF30D200FF3090
:10087000DD000F30E80017307D01CB000B30C600E3
:100880001D30C7001930CD000F307E01A600163094
:100890009C001130A8000D307D01C50015307E018F
:1008A0009D00BD01BE01BF01C801C901CA01D3013C
:1008B000D401D501E901EA01EB0108007D35A03E34
:1008C000860087010030C03FC13F42019D1C692C5A
:1008D0006A2C7B2C7D35A03E8600870101154101E5
:1008E000460847040319752C762C7B2C47088A0090
:1008F00046080A00843142011D1D7F2C802C912C5A
:100900007D35A03E860087018114410148084904D5
:1009100003198B2C8C2C912C49088A0048080A005A
:100920008431420119084001A0007D08013E0739C9
:10093000A10021086606031D9E2C9F2CA02CAA2C2A
:100940007D08B03E86008701200881002108FD0057
:100950000130E50741014A084B040319B02CB12CC2
:10096000B62C4B088A004A080A0084310800700837
:100970008600870144310108F400F501F435F50DD6
:100980007408700786007508713D87007208C03FC3
:100990007308C13F700886008701463101080319BA
:1009A000D22CD32CDF2C70088600870145317008CB
:1009B0008400850105310008013E0139810070087D
:1009C00086008701443170088400850104310008E5
:1009D000013E0139810070088600870146317008A8
:1009E0008400850105310008F40070088400850149
:1009F0000431000874060319FE2C002D0130012D6E
:100A0000003081000800400122088600870145313E
:100A1000220884008501043100080106031D112D00
:100A2000122D1D2D22088600870146310108031D65
:100A30001A2D1B2D1D2D0030452D22088600870103
:100A400045310108A500A601A535A60D25082207F8
:100A500086002608233D8700240884008501403F46
:100A6000803F413F813F22088600870145312208AF
:100A70008400850105310008013E0139810022080A
:100A80008600870146318101013008004001A7013D
:100A9000A8012208230403194E2D4F2D7C2D01306F
:100AA000A600592D0130A235A30D890B532D01301D
:100AB000A607A31F5C2D5D2D522D0130A735A80D73
:100AC000890B5E2D23082502031D682D22082402B0
:100AD000031C6B2D6C2D712D2208A4022308A53B4D
:100AE00027140130A336A20C890B722D0130A60207
:100AF000031D7B2D7C2D5D2D2808A3002708A20057
:100B000008004E0199125E304101E1000430E2001C
:100B10004E011912A2304101E3000730E4004830D1
:100B200042019F0090309D0026309E0038309B008F
:100B300001309C00AD304001A2000E30A3008F3187
:100B400047278531C4304001A2000E30A3008F3109
:100B5000562785314101CE01CF014001E901E8016D
:100B60000830E700FD01E601E5014E019916080095
:100B70004001A601A701DF2D40011B1508304001EF
:100B8000A5009D30A4000530890BC42DA40BC42DF5
:100B9000A50BC42D003240011B1108304001A500F7
:100BA0009D30A4000530890BD32DA40BD32DA50BAC
:100BB000D32D003201304001A6070030A73D2708A1
:100BC000803AA4002308803A2402031DE92D22085C
:100BD0002602031CEC2DED2DBC2D0800400122083F
:100BE00023040319F42DF52D1C2E0130A600FF2D32
:100BF0000130A235A30D890BF92D0130A607A31FE3
:100C0000022E032EF82D23082502031D092E22088B
:100C10002402031C0C2E0D2E112E2208A4022308E0
:100C2000A53B0130A336A20C890B122E0130A6027F
:100C3000031D1B2E1C2E032E2508A3002408A20032
:100C400008000030410145020B3003194402031C27
:100C50002A2E2B2E312E8731BD2786314001E1000F
:100C6000502E8731BD2786314001E0006008F60034
:100C7000F7016108F800F9017808F900F801760831
:100C80007804FB0077087904FC00D830F0000030CD
:100C9000F1007C08F3007B08F2008431B724863130
:100CA0004101C401C5010800813405340034003419
:100CB000BD340734E334063400340034F4340E34E5
:100CC00000340034B4340E340034003400340034C2
:100CD0000034003400340034003400340034003474
:100CE0000034003400340034003400340034003464
:100CF00038340F340034003447340F3456340F3452
:100D000000340034003400346834073400340034D4
:100D100000340034C8340E3400340034D8340F3476
:100D200000340034BA340E3400340034003400345B
:100D30000034003400340034003400340034003413
:100D40000034003400340034003400340034003403
:100D5000003400340034003465340F3474340F34FC
:100D6000003400340034003457304001A200023017
:100D7000A3000030A40087310727863140015808BE
:100D8000D200D3015708D400D5015408D500D401AE
:100D900052085404D90053085504DA00590A031DB7
:100DA000D52E5A0A031DD52ED62EDD2E4330CE0069
:100DB0009030CF008F311B27863140015A08D10077
:100DC0005908D00008004E01191AE72EE82EED2E22
:100DD0004001220842019A00042F400167080319CC
:100DE000F22EF32E042F6908B83E860087012208F0
:100DF00081006908013E0739A3002308E9004E017C
:100E0000191201304001E7024E0119160800400195
:100E10002208A7002408A6002308A500222F2708DF
:100E200086008701010843018C004E010F1C192F19
:100E30001A2F152F0F1001304001A7070130A5020E
:100E40000030A63B25082604031D272F282F0F2F2F
:100E500008004001A601A701221C2F2F302F342F9C
:100E60002408A6072508A73D0130A435A50D890B48
:100E7000352F0130A336A20C890B3A2F2208230408
:100E8000031D432F442F2C2F2708A3002608A20060
:100E9000080040014408C8004308C7005B2F42080F
:100EA000AE004108AD004730AF004508B000B101C9
:100EB00080315A2087314001470884004808850066
:100EC0001200031D642F652F4F2FC101C2010800BE
:100ED000483054019F0090309D0026309E0019300C
:100EE0009B009C01AC304001A2000E30A3008F316A
:100EF00065278731C0304001A2000E30A3008F313A
:100F0000742787314101D401D5010800E2340E3441
:100F100000340034343403340034003407340734EC
:100F20000034003400340034003400340034003421
:100F30000034003400340034003400340034003411
:100F4000003400340830400167020318A82FA92F8D
:100F5000BA2F6808B83E86008701010842019A004E
:100F600040016808013E0739F0007008E8000130D0
:100F7000E707BC2F4E011912080040016608B03E79
:100F8000860087010108F1006608013E0739F0007C
:100F90007008E6004E019912400165080319D12F2F
:100FA000D22FD42F0130E5024E01991671080800A6
:100FB000E62F240884002508850000088F31932738
:100FC000873101304001A4070030A53D40012408CD
:100FD0008400250885001200031DEF2FF02FD92F64
:100FE000080072346534673469347334743465349A
:100FF000723469346E3467342034683461346E344A
:0E10000064346C34653472340A340D340034B8
:101D58000800080042019D17080042011D160800EE
:101D680042019E16080054019D17080054019E1652
:101D780008004B019E17080054011D121D1608008B
:101D880042011D121D1608004001220854019A0044
:101D9800080001304101C4070030C53D0800640057
:101DA80080010131890BD42E003440012308410100
:101DB800D700400122084101D60008004E01191041
:101DC8000F1043018F01900192018D01080040011D
:101DD80023084101E000400122084101DF0008001A
:101DE80040016708031DF92EFB2E0130FC2E003040
:101DF80008008631B4268E3140015108DC005008B5
:101E0800DB000800603051018D0040308F009101E7
:101E180004309300920108004E010C10003040017C
:101E2800A2000030A3008E31D9268F31080060301F
:101E38004001C9009030CA004F08CC004E08CB00C2
:101E48008F3183278F31272F080041015F086004F5
:101E580003192F2F302F352F60088A005F080A00DA
:101E68008F314E018C120800400122082304031907
:101E78003E2F3F2F462F23084101CB004001220867
:101E88004101CA00080040012208230403194D2F0C
:101E98004E2F552F23084101C90040012208410156
:101EA800C800080040012208230403195C2F5D2F95
:101EB800642F23084101C700400122084101C600E0
:101EC800080040012208230403196B2F6C2F732F7D
:101ED80023084101D300400122084101D200080033
:101EE80040012208230403197A2F7B2F822F23080D
:101EF8004101D100400122084101D00008004B30C7
:101F08004001CD000030C100C2004A08C4004908A1
:101F1800C3004D30C500873149278F310800400183
:101F2800A3008F31D8278F31003A03199C2F9D2F9A
:101F3800952F40012308A2008E31C8268F31080052
:101F48004001A4008E31F4268F31003A0319AD2FD9
:101F5800AE2FA62F40012408A2008631E3268F3138
:101F680008004001A3008F31D8278F31003A0319A8
:101F7800BE2FBF2FB72F40012308A2008E31C826DD
:101F88008F3108005C304B019D009C0174309F002C
:101F980002304101DF000030E0004E018C1296163D
:101FA80087304B019E0008004001A2014E010F1F1F
:101FB800DE2FDF2FE72F54019E1EE32FE42FE72F9C
:101FC80001304001A2004001220808008F31062795
:101FD8008F31843102248F318F31C6278F3185317B
:101FE80081258F31873168278F318E31E2268F31F5
:101FF8008F3110278F31080065346E3461346234B4
:102008006C3469346E346734203475347334613415
:102018007234743431340A340D3400345434653431
:102028006D34703465347234613474347534723498
:1020380065343A342034253475340A340D34003488
:1020480065346E3474346534723469346E3467348C
:1020580020346C346F346F3470340A340D340034E7
:102068004D346F34643465343A3420346D3461341B
:1020780073347434653472340A340D340034533490
:102088005034493420345234653461346434203453
:102098004534723472346F34723400344D346F34D2
:1020A800643465343A34203473346C3461347634AF
:1020B80065340A340D3400344534723472346F3464
:1020C80072343A342034253473340A3400340034FA
:1020D80004341034013400346434043410340034CB
:0C20E8000034253478340D340A34003400
:020000040001F9
:0A000E00FA37FF3D9F3FFF3FFF3F21
:00000001FF
