:1000000080313728013401347E1480310B1F0928D8
:100010000A2835284E01961E0E280F2817288C1EF8
:100020001228132817288731B42780313528191E44
:100030001A281B2826280F1E1E281F2826284101A3
:100040005B088A005A080A0080313528991E292841
:100050002A2835288F1E2D282E2835284101590899
:100060008A0058080A00803135287E100900803146
:100070003928803102208031EE0080310320803128
:10008000EF00F601F701F801F9015A308400003061
:10009000850014308F31B1278031A03084000030CA
:1000A000850036308F31B127803120308400013017
:1000B000850020308F31B12780317E1040018131A1
:1000C000C52940012B0886008701403FAE00413F13
:1000D000AF002E0884002F0885001200253A031D6A
:1000E00072287328AA292B0886008701013081070E
:1000F00041310318810A4101C001C10100304001B2
:10010000E000FF304101C200FF30C30040012B0876
:1001100086008701403FB500413FB60035088400A6
:10012000360885001200753A031D972898280D2976
:100130002C0886002D088700010884008501023004
:100140008107003FB700013FB8003508013EAE000F
:100150000030363DAF002B08860087012E08C03FD7
:100160002F08C13F04292030BB000130BB023B08EF
:10017000203E8600013087000A30A0000030A10038
:100180003808A3003708A2008431F02480314001F0
:100190002008303E81000A30A0000030A10038085D
:1001A000A3003708A20084314A248031400121088D
:1001B000B8002008B700370838040319E028E12800
:1001C000FD283B08031DE528E628B528FD283B0847
:1001D000203E8600013087000108AE00AF012E08E6
:1001E000A0002F08A1002A08A3002908A20083313B
:1001F0003723803101304001BB0720303B06031D0F
:1002000002290329E728C429350884003608850017
:100210000008753A0319B3280D29B2012B0886008E
:100220008701403FAE00413FAF002E0884002F08F9
:1002300085001200733A031D1E291F292A292B0845
:10024000860087010130810741310318810A01309E
:10025000B2006C292B0886008701403FAE00413F69
:10026000AF002E0884002F08850012006C3A031D91
:100270003A293B296C292B0886008701403FAE00B4
:10028000413FAF0001302E0784002F080318013EC4
:10029000850012006C3A031D4E294F296C292B084A
:1002A00086008701403FAE00413FAF0002302E077D
:1002B00084002F080318013E85001200733A031DC5
:1002C000622963296C292B08860087010330810786
:1002D00041310318810A272932080319702971292D
:1002E000A0292C0886002D088700010884008501BC
:1002F00002308107003FB300013FB4009629330864
:100300008400340885000008AE00AF012E08A0006C
:100310002F08A1002A08A3002908A200833137234F
:10032000803101304001B3070030B43D3308840010
:10033000340885001200031D9E299F297F29C429A6
:1003400040012B08860087010130810741310318E5
:10035000810AC4292B0886008701403FAE00413F37
:10036000AF002E0884002F0885000008B000B101FE
:100370003008A0003108A1002A08A3002908A20023
:10038000833137238031A02908008631EC26813162
:100390008F31892781318F318C2781317E0138104F
:1003A0004312C3124E13CE135910D910D912400163
:1003B0001210131293161413941715109514951602
:1003C0008B170B179F30F4000F30F5008F31AB27E0
:1003D00081314001A4018231C722813140010C1CCE
:1003E000F229F329542A0130F4000030F500843159
:1003F0008524813169304001A0008730A100863119
:10040000BD26813140019B128731F72781314001A0
:1004100057084101DF00400156084101DE0040015C
:100420009B1641015F0887313827813141015E0801
:1004300087313827813141015F084001D9004101EE
:100440005E084001D8000730D936D80C890B242A21
:1004500058084101DE00400159084101DF00143015
:100460004001C4008730C50041015F084001C7005A
:1004700041015E084001C6008731592781310230B1
:100480004001D9008630D8009930890B452AD80B15
:10049000452AD90B452AC3304001D800CD30890BFD
:1004A0004F2AD80B4F2A022AC330A0008730A10060
:1004B0008631BD268131400193164101DC010230B5
:1004C0004001A0008730A1008631BD2681318F31E7
:1004D000802781318F31832781318F318627813188
:1004E000D6304001A0008630A1008631BD26813182
:1004F0006C30F4000630F5008F31DC2781318B172A
:100500000B1749304001A0008730A1008631BD267D
:1005100081314001630843018C0001304101DD005D
:10052000A72A40018F1A952A962A992A013041015B
:10053000DC0041015C0803199E2A9F2AA72A40017A
:100540008F1EA32AA42AA72A4101DD01AC2A4E014D
:100550000F1CAB2AAC2A912A41015D080319B12A6C
:10056000B22ABF2A4E010F104001620843018C00DD
:10057000BF2A40018F1EBD2ABE2ABF2A892A4E01EA
:100580000F1CC32AC42AB92A892A8031372843017B
:10059000901ACB2ACC2A362B40012408A500A601AC
:1005A0002508A0002608A1000530A2000030A30005
:1005B0008531F42582310B30400120078400103052
:1005C000213D80388500000843018F004001240848
:1005D000A500A6012508A0002608A1000530A2005C
:1005E0000030A3008531F42582310C304001200712
:1005F00084001030213D80388500000843019000C0
:1006000040012408A500A6012508A0002608A10095
:100610000530A2000030A3008531F42582310D3071
:100620004001200784001030213D803885000008FB
:100630004301920040012408A500A6012508A0005E
:100640002608A1000530A2000030A3008531F42562
:1006500082310E304001200784001030213D803867
:100660008500000843018D009016362B08004001DC
:100670002208230403193D2B3E2B442B220823047C
:10068000031D432B442B492B2008873187278331B7
:10069000942B2208860023088700493116000104A4
:1006A0000319532B542B742B220886002308870030
:1006B0004931403FA400413FA5002208860023089D
:1006C00087004231403FA600413FA7002708803AFB
:1006D000A8002508803A2802031D702B2408260252
:1006E0000318732B742B942B4001220886002308D7
:1006F000870042312208840023088500003FA400BF
:10070000013FA500403F24078400413F253D85006F
:10071000200880002208860023088700423101302B
:10072000810741310318810A0800400198019901AD
:100730009A019B019C01FF309200EF309300BF3083
:100740009400FE3095000F309600FE307E01B80018
:10075000C730C3003F30CE00DC30D9000730E400A2
:10076000B901C401CF01DA01E501BA01C501D00127
:10077000DB01E601FF30BB00FF30C600FF30D100D7
:10078000FF30DC000730E700FF30BC00FF30C7005F
:10079000FF30D200FF30DD000F30E80017307D0160
:1007A000CB000B30C6001D30C7001930CD000F3014
:1007B0007E01A60016309C001130A8000D307D018E
:1007C000C50015307E019D00BD01BE01BF01C801FD
:1007D000C901CA01D301D401D501E901EA01EB0144
:1007E00008007735A03E860087010030C03FC13F3A
:1007F00042019D1CFC2BFD2B0E2C7735A03E860064
:100800008701011541014A084B040319082C092CE2
:100810000E2C4B088A004A080A00843142011D1D33
:10082000122C132C242C7735A03E860087018114CE
:1008300041014C084D0403191E2C1F2C242C4D087B
:100840008A004C080A00843142011908F200770836
:10085000013E0739F30073087606031D302C312C56
:10086000322C3D2C7708B03E86008701720881004B
:100870007308F70001304001EC0741014E084F04B6
:100880000319432C442C492C4F088A004E080A00B7
:10089000843108004001A501A601200821040319A4
:1008A000522C532C802C0130A4005D2C0130A0353B
:1008B000A10D890B572C0130A407A11F602C612CBE
:1008C000562C0130A535A60D890B622C2108230278
:1008D000031D6C2C20082202031C6F2C702C752C1D
:1008E0002008A2022108A33B25140130A136A00C48
:1008F000890B762C0130A402031D7F2C802C612CE7
:100900002608A1002508A00008004001A201A301BB
:10091000AC2C40011B1508304001A1009D30A00007
:100920000530890B912CA00B912CA10B912C00323E
:1009300040011B1108304001A1009D30A00005308E
:10094000890BA02CA00BA02CA10BA02C00320130F5
:100950004001A2070030A33D2308803AA00075089B
:10096000803A2002031DB62C74082202031CB92C05
:10097000BA2C892C08004E019912F1304101D8009F
:100980000330D9004E01191288304101DA000630D7
:10099000DB00483042019F0090309D0026309E00D1
:1009A00038309B0001309C007E30F4000F30F500A1
:1009B0008F31E82784319330F4000F30F5008F3108
:1009C000F42784314101D201D301F9014001ED0145
:1009D0000830F800F701F601EC014E019916080005
:1009E0004001200821040319F62CF72C1E2D01309C
:1009F000F400012D0130A035A10D890BFB2C013035
:100A0000F407A11F042D052DFA2C21082302031D34
:100A10000B2D20082202031C0E2D0F2D132D200854
:100A2000A2022108A33B0130A136A00C890B142D92
:100A30000130F402031D1D2D1E2D052D2308A100DC
:100A40002208A0000800BB34043400340034A3346E
:100A50000634D434053400340034B7340F34003451
:100A6000003486340F340034003400340034003451
:100A700000340034003400340034003400340034D6
:100A80000034003400340034003400340034DC34EA
:100A90000F3400340034E8340F34F4340F340034AD
:100AA000003400340034333406340034003400346D
:100AB00000349B340F3400340034A5340734003440
:100AC00000348C340F3400340034003400340034EB
:100AD0000034003400340034003400340034003476
:100AE0000034003400340034003400340034003466
:100AF000003400340034EB340734DF34073400347E
:100B000000340034003452304001A0000230A10013
:100B10000030A2008531B225853140015308CD0057
:100B2000CE015208CF00D0014F08D000CF014D08B0
:100B30004F04D4004E085004D500540A031DA42DC0
:100B4000550A031DA42DA52DAC2D7830C900873082
:100B5000CA008731D127853140015508CC0054089F
:100B6000CB00080040012008A5002208A4002108AD
:100B7000A300CD2D250886008701010843018C00C4
:100B80004E010F1CC42DC52DC02D0F10013040018A
:100B9000A5070130A3020030A43B23082404031D51
:100BA000D22DD32DBA2D08004E01191AD82DD92DCA
:100BB000DD2D740842019A00F12D78080319E12D0A
:100BC000E22DF12D7908B83E860087017408810076
:100BD0007908013E0739F5007508F900191201304E
:100BE000F8024E0119160800F401F5014001201C1D
:100BF000FA2DFB2DFF2D2208F4072308F53D0130C7
:100C0000A235A30D890B002E0130A136A00C890B53
:100C1000052E20082104031D0E2E0F2EF62D75081B
:100C2000A1007408A000080040013F08C3003E086E
:100C3000C200262E3D08AA003C08A9004230AB00A5
:100C40004008AC00AD01803161208631400142088E
:100C50008400430885001200031D2F2E302E1A2E0B
:100C6000BC01BD010800483054019F0090309D0038
:100C700026309E0038309B0001309C007D30F4000F
:100C80000F30F5008731EB2786318F30F4000F30BD
:100C9000F5008731DF2786314101D401D5010800F5
:100CA000BF340F3400340034C7340234003400340D
:100CB000B2340534003400340034003400340034DD
:100CC0000034003400340034003400340034003484
:100CD00000340034003400340030410149020B304C
:100CE00003194802031C752E762E7E2E8631A3260C
:100CF00086314001E3000130E100842E8631A326D5
:100D000086314001E200E1018F31972786310800EA
:100D10000830780203188D2E8E2EA02E40016D080B
:100D2000B83E86008701010842019A0040016D0823
:100D3000013E0739F0007008ED000130F807A22EDF
:100D40004E01191208007608B03E8600870101089E
:100D5000F1007608013E0739F0007008F6004E01F8
:100D6000991240016C080319B62EB72EB92E013026
:100D7000EC024E01991671080800CB2E2008840061
:100D8000210885000008873196278631013040010F
:100D9000A0070030A13D4001200884002108850003
:100DA0001200031DD42ED52EBE2E080072346534D9
:100DB00067346934733474346534723469346E342E
:100DC00067342034683461346E3464346C34653490
:100DD00072340A340D3400348F31C82786318331A0
:100DE000952386318731262786318431BB2486318D
:100DF0008631332686318F31BF2786318F31D22716
:100E00008631080065346E34613462346C34693480
:100E10006E3467342034753473346134723474340E
:100E200031340A340D340034543465346D34703444
:100E300065347234613474347534723465343A34E0
:100E40002034253475340A340D3400345C304B01C1
:100E50009D009C0174309F007F304101D6000F300F
:100E6000D7004E018C12961687304B019E00080069
:100E70004001A0008F31B7278731003A0319412F75
:100E8000422F3A2F40012008F4008531D4258731C4
:100E9000080065346E3474346534723469346E34E9
:100EA000673420346C346F346F3470340A340D344A
:100EB000003446304001C8000030BC00BD00450889
:100EC000BF004408BE004830C00086311426873178
:100ED00008004D346F34643465343A3420346D3452
:100EE000613473347434653472340A340D3400342C
:100EF00053345034493420345234653461346434CA
:100F000020344534723472346F3472340034F50056
:100F10008731A5278731003A03198F2F902F882F0B
:100F20007508F4008F319B2787310800F500873161
:100F3000A5278731003A03199E2F9F2F972F7508F9
:100F4000F4008F319B2787310800F4014E010F1FF9
:100F5000AA2FAB2FB22F54019E1EAF2FB02FB22F4E
:100F60000130F400740808004101560857040319C1
:100F7000BA2FBB2FC02F57088A0056080A008731A6
:100F80004E018C1208004D346F34643465343A34A9
:100F9000203473346C346134763465340A340D345F
:100FA000003400304001C4009030C5004A08C7003A
:100FB0004908C600873159278731DD2F080074089A
:100FC00075040319E42FE52FEA2F75084001DB00B3
:100FD0007408DA000800740875040319F02FF12F63
:100FE000F62F75084001DD007408DC00080085312B
:100FF0008325873140014C08D7004B08D6000800F4
:101EFA0008000800080042019D17080042011D164B
:101F0A00080042019E16080054019D17080054015A
:101F1A009E16080054011D121D16080042011D12CA
:101F2A001D1608004101C801C901080074085401BE
:101F3A009A00080001304101C8070030C93D080075
:101F4A0075084001DF007408DE00080075084101C9
:101F5A00D7007408D6000800640080010131890B9B
:101F6A00B22F00347808031DBB2FBD2F0130BE2FBE
:101F7A00003008004E0119100F1043018F01900123
:101F8A0092018D010800603051018D0040308F00B0
:101F9A00910104309300920108004E010C100030A8
:101FAA00F4000030F5008F31A5278F31080074083E
:101FBA0075040319E12FE22FE72F75084101CF00BD
:101FCA007408CE000800740875040319ED2FEE2F6B
:101FDA00F32F75084101CD007408CC00080074087D
:101FEA0075040319F92FFA2FFF2F75084101CB0049
:101FFA007408CA0008004534723472346F3472347B
:10200A003A342034253473340A3400340034043426
:10201A00103401340034643404341034003400348D
:020000040001F9
:0A000E00FA37FF3D9F3FFF3FFF3F21
:00000001FF
