:1000000080312B28080008007E1480310B1F09283E
:100010000A2829284E01191E0E280F281A280F1EFB
:10002000122813281A2841016B088A006A080A005E
:1000300080312928991E1D281E2829288F1E212835
:1000400022282928410169088A0068080A008031AD
:1000500029287E10090080312D288731FF27803123
:10006000EF00F601F701F801F9015B308400003080
:10007000850014308F3170278031A030840000302B
:10008000850048308F31702780317E1040018131EA
:10009000FD2940012B0886008701403FAE00413F0B
:1000A000AF002E0884002F0885001200253A031D9A
:1000B0005A285B28E2292B08860087010130810736
:1000C00041310318810A4101E001E10100304001A2
:1000D000E900FF304101E200FF30E30040012B085E
:1000E00086008701403FB600413FB70036088400D4
:1000F000370885001200783A03197F2880288A285B
:1001000036088400370885001200753A031D8928D7
:100110008A2845292C0886002D08870001088400BC
:10012000850102308107003FB800013FB900360861
:10013000013EAE000030373DAF002B08860087013E
:100140002E08C03F2F08C13F39292030BC000130A4
:10015000BC023C08A03E860087010A30A0000030A7
:10016000A1003908A3003808A20085316325803139
:1001700040012008303E81000A30A0000030A1007C
:100180003908A3003808A20084318424803140015A
:100190002108B9002008B800380839040319D1280B
:1001A000D228ED283C08031DD628D728A728ED28FB
:1001B0003C08A03E860087010108AE00AF012E0872
:1001C000A0002F08A1002A08A3002908A20083315B
:1001D0007123803101304001BC0720303C06031DF3
:1001E000F228F328D828FC292030BC0038080F3921
:1001F000B5000A3035020318FE28FF2802293030E6
:10020000B50704295730B5070130BC023C08A03EB1
:1002100086008701350881000430B936B80C890B97
:100220000D293808390403191629172932293C08E1
:10023000031D1B291C29F62832293C08A03E8600F4
:1002400087010108AE00AF012E08A0002F08A10011
:100250002A08A3002908A2008331712380310130CC
:100260004001BC0720303C06031D372938291D29D1
:10027000FC2936088400370885000008753A031900
:10028000A5280D3A0319F4284529B2012B08860048
:100290008701403FAE00413FAF002E0884002F0889
:1002A00085001200733A031D5629572962292B082D
:1002B000860087010130810741310318810A01302E
:1002C000B200A4292B0886008701403FAE00413FC1
:1002D000AF002E0884002F08850012006C3A031D21
:1002E00072297329A4292B0886008701403FAE009C
:1002F000413FAF0001302E0784002F080318013E54
:10030000850012006C3A031D86298729A4292B0831
:1003100086008701403FAE00413FAF0002302E070C
:1003200084002F080318013E85001200733A031D54
:100330009A299B29A4292B0886008701033081076D
:1003400041310318810A5F2932080319A829A92914
:10035000D8292C0886002D08870001088400850113
:1003600002308107003FB300013FB400CE293308BB
:100370008400340885000008AE00AF012E08A000FC
:100380002F08A1002A08A3002908A20083317123A5
:10039000803101304001B3070030B43D33088400A0
:1003A000340885001200031DD629D729B729FC2956
:1003B00040012B0886008701013081074131031875
:1003C000810AFC292B0886008701403FAE00413F8F
:1003D000AF002E0884002F0885000008B000B1018E
:1003E0003008A0003108A1002A08A3002908A200B3
:1003F000833171238031D829080087313C2781312E
:100400008F31582781318F315B27813140011214A0
:100410007E0138104001A4018231FB22813140016C
:100420000C1C132A142A872A0130F4000030F5002E
:100430008431F8248131C6304001A0008730A1000A
:100440008631E52681314001A4018231FB228131D0
:10045000003A03192C2A2D2A382A4001991199159E
:100460002930A0008730A1008631E5268131412A5C
:1004700023304001A0009030A1008631E526813173
:10048000402A400199118F31872781314001580856
:100490004101EF00400157084101EE00400199156C
:1004A00041016F0887319527813141016E088731FD
:1004B0009527813141016F084001DA0041016E0842
:1004C0004001D9000730DA36D90C890B632A590864
:1004D0004101EE0040015A084101EF006130400146
:1004E000C5008730C60041016F084001C8004101C6
:1004F0006E084001C7008731B6278131C330400103
:10050000D900CD30890B822AD90B822A412A0030AA
:10051000A0009030A1008631E5268131400193167C
:1005200095164101EC014F304001A0008730A10039
:100530008631E52681318F314F2781318F31522726
:1005400081318F3155278131FE304001A000863046
:10055000A1008631E52681311430F4000730F50022
:100560008F31A42781318B170B17A6304001A000D3
:100570008730A1008631E526813140016C084301B6
:100580008C0001304101ED00DB2A40018F1AC92A9D
:10059000CA2ACD2A01304101EC0041016C0803193F
:1005A000D22AD32ADB2A40018F1ED72AD82ADB2A57
:1005B0004101ED01E02A4E010F1CDF2AE02AC52A85
:1005C00041016D080319E52AE62AF32A4E010F10AE
:1005D00040016B0843018C00F32A40018F1EF12A71
:1005E000F22AF32ABD2A4E010F1CF72AF82AED2A17
:1005F000BD2A80312B284301901AFF2A002B6D2B36
:1006000040012408A500A6012508A0002608A10095
:100610000530A2000030A30086313826823119301F
:100620004001200784001030213D803885000008FB
:1006300043018F0040012408A500A6012508A00061
:100640002608A1000530A2000030A300863138261C
:1006500082311A304001200784001030213D80385B
:10066000850000084301900040012408A500A60170
:100670002508A0002608A1000530A2000030A30034
:100680008631382682311B3040012007840010302B
:10069000213D803885000008430192004001240874
:1006A000A500A6012508A0002608A1000530A2008B
:1006B0000030A3008631382682311C3040012007EB
:1006C00084001030213D80388500000843018D00F2
:1006D000901601304001A7006F2B4001A7012708A9
:1006E00008004001220823040319772B782B7E2B66
:1006F00022082304031D7D2B7E2B832B20088731AA
:10070000E4278331CE2B2208860023088700493155
:100710001600010403198D2B8E2BAE2B22088600A8
:10072000230887004931403FA400413FA50022082B
:100730008600230887004231403FA600413FA700C2
:100740002708803AA8002508803A2802031DAA2B12
:10075000240826020318AD2BAE2BCE2B4001220815
:100760008600230887004231220884002308850080
:10077000003FA400013FA500403F24078400413F03
:10078000253D850020088000220886002308870078
:1007900042310130810741310318810A08004001CC
:1007A000980199019A019B019C01FF309200EF3062
:1007B0009300BF309400FE3095000F309600FE305D
:1007C0007E01B8008F30C3003F30CE00DC30D9004E
:1007D0000730E400B901C401CF01DA01E501BA0133
:1007E000C501D001DB01E601FF30BB00FF30C600D0
:1007F000FF30D100FF30DC000730E700FF30BC00E5
:10080000FF30C700FF30D200FF30DD000F30E800BE
:100810000E307D01C6001D30C7001730CB001930E7
:10082000CD0016307E019C000F30A6001130A800CC
:100830000D307D01C50015307E019D00BD01BE015A
:10084000BF01C801C901CA01D301D401D501E90121
:10085000EA01EB0108007735C03E860087010030D1
:10086000C03FC13F42019D1C362C372C482C7735A8
:10087000C03E86008701011540015B085C04031936
:10088000422C432C482C5C088A005B080A00843107
:1008900042011D1D4C2C4D2C5E2C7735C03E860030
:1008A0008701811440015D085E040319582C592CFE
:1008B0005E2C5E088A005D080A0084314201190836
:1008C000F2007708013E0739F30073087606031D2E
:1008D0006A2C6B2C6C2C772C7708D03E8600870115
:1008E000720881007308F70001304001ED074001F4
:1008F0005F08600403197D2C7E2C832C60088A001D
:100900005F080A00843108004001A501A601200803
:10091000210403198C2C8D2CBA2C0130A400972CA7
:100920000130A035A10D890B912C0130A407A11F26
:100930009A2C9B2C902C0130A535A60D890B9C2C54
:1009400021082302031DA62C20082202031CA92C27
:10095000AA2CAF2C2008A2022108A33B25140130A9
:10096000A136A00C890BB02C0130A402031DB92CB8
:10097000BA2C9B2C2608A1002508A00008001230E4
:100980004001D5003430D6005530A0000230A1001F
:100990000030A2008531F6258431FF304001CE00C1
:1009A000FF30CF0000304F06031DD82C55304E06C7
:1009B000031DDB2CDC2CE32CD530CA008730CB00A8
:1009C0008F31D427843140015608CE00CF0155081D
:1009D000D000D1015008D100D0014E085004D300FE
:1009E0004F085104D4005408CD005308CC0008002F
:1009F0004001A201A3011F2D40011B150830400139
:100A0000A1009D30A0000530890B042DA00B042D02
:100A1000A10B042D003240011B1108304001A10040
:100A20009D30A0000530890B132DA00B132DA10BB9
:100A3000132D003201304001A2070030A33D2308EE
:100A4000803AA0007508803A2002031D292D740801
:100A50002202031C2C2D2D2DFC2C08004E01991276
:100A60002B304101E8000430E9004E011912B0308A
:100A70004101EA000630EB00483042019F0090300F
:100A80009D0026309E0038309B0001309C000330D2
:100A9000F4000030F5008F31B02785316230F4006A
:100AA0000F30F5008F31BC2785314101E401E501AC
:100AB000F9014001EE010830F800F701F601ED01FF
:100AC0004E01991608004001200821040319692DE0
:100AD0006A2D912D0130F400742D0130A035A10D47
:100AE000890B6E2D0130F407A11F772D782D6D2D08
:100AF00021082302031D7E2D20082202031C812DC4
:100B0000822D862D2008A2022108A33B0130A136A8
:100B1000A00C890B872D0130F402031D902D912D1F
:100B2000782D2308A1002208A00008002E340534E7
:100B300000340034CB340634183406340034003426
:100B400076340F340034003455340F34003400341C
:100B500000340034003400340034003400340034F5
:100B600000340034003400340034003400340034E5
:100B700000340034A4340F3400340034B0340F3463
:100B8000BC340F340034003400340034773406347D
:100B9000003400340034003466340F340034003440
:100BA000F1340F34003400345B340F34003400343B
:100BB0000034003400340034003400340034003495
:100BC0000034003400340034003400340034003485
:100BD000003400340034003400340034C8340F349E
:100BE000F33407340034003400340034400120086A
:100BF000A5002208A4002108A300112E25088600C4
:100C00008701010843018C004E010F1C082E092E9C
:100C1000042E0F1001304001A5070130A30200305F
:100C2000A43B23082404031D162E172EFE2D0800B6
:100C30004E01191A1C2E1D2E212E740842019A00F5
:100C4000352E78080319252E262E352E7908D83E04
:100C500086008701740881007908013E0739F50094
:100C60007508F90019120130F8024E011916080032
:100C7000F401F5014001201C3E2E3F2E432E220898
:100C8000F4072308F53D0130A235A30D890B442E4E
:100C90000130A136A00C890B492E20082104031D28
:100CA000522E532E3A2E7508A1007408A000080099
:100CB00040014008C4003F08C3006A2E3E08AA0055
:100CC0003D08A9004330AB004108AC00AD018031C4
:100CD0004920863140014308840044088500120001
:100CE000031D732E742E5E2EBD01BE010800483018
:100CF00054019F0090309D0026309E0038309B00AC
:100D000001309C000230F4000030F5008F31C8271C
:100D100086315E30F4000F30F5008731F3278631DD
:100D20004101E601E70108007E340F34003400344D
:100D3000FB34023400340034F6340534003400341B
:100D40000034003400340034003400340034003403
:100D500000340034003400340034003400340034F3
:100D6000083078020318B52EB62EC82E40016E0842
:100D7000D83E86008701010842019A0040016E08B2
:100D8000013E0739F0007008EE000130F807CA2E66
:100D90004E01191208007608D03E8600870101082E
:100DA000F1007608013E0739F0007008F6004E01A8
:100DB000991240016D080319DE2EDF2EE12E01305D
:100DC000ED024E01991671080800F32E20088400E8
:100DD0002108850000088F31E2278631013040016B
:100DE000A0070030A13D40012008840021088500B3
:100DF0001200031DFC2EFD2EE62E08007234653411
:100E000067346934733474346534723469346E34DD
:100E100067342034683461346E3464346C3465343F
:100E200072340A340D34003440016A08031D192F4E
:100E30001A2F222F8631CB2687314001EC0001305A
:100E4000EA00282F8631CB2687314001EB00EA01EA
:100E5000080054344D3450343134323432345F3439
:100E600049346E3469347434203464346F346E34ED
:100E700065340A340D3400348F3190278731833143
:100E8000CF23873185312E258731863177268731EB
:100E90008F317E2787318F319A278731080065345B
:100EA0006E34613462346C3469346E3467342034A7
:100EB0007534733461347234743431340A340D341B
:100EC0000034543465346D347034653472346134B4
:100ED00074347534723465343A34203425347534BE
:100EE0000A340D3400346234753466346634653443
:100EF00072343034203469347334203425347834F7
:100F000020340A340D340034623475346634663467
:100F100065347234313420346934733420342534E8
:100F2000783420340A340D3400344001A0008F316D
:100F300076278731003A03199E2F9F2F972F400164
:100F40002008F400863118268731080065346E3495
:100F500074346534723469346E34673420346C34DC
:100F60006F346F3470340A340D340034473040012C
:100F7000C9000030BD00BE004608C0004508BF00E3
:100F80004930C10086315826873108004D346F340E
:100F9000643465343A3420346D34613473347434D9
:100FA000653472340A340D340034533450344934C7
:100FB000203452346534613464342034453472341E
:100FC00072346F3472340034F5008F31F127873179
:100FD000003A0319EC2FED2FE52F7508F4008F313F
:100FE000662787310800740875040319F82FF92F54
:100FF000FE2F75084001E4007408E3000800013486
:101E9E0042019D17080042011D16080042019E16C0
:101EAE00080054019D17080054019E1608005401A5
:101EBE001D121D16080042011D121D160800740881
:101ECE0054019A00080075084001E8007408E70004
:101EDE000800640080010131890B712F00347808ED
:101EEE00031D7A2F7C2F01307D2F003008004E010C
:101EFE0019100F1043018F01900192018D010800FE
:101F0E008431BF248F3140014D08D8004C08D700D2
:101F1E000800603051018D0040308F009101043077
:101F2E009300920108004E010C100030F4000030B6
:101F3E00F5008F316A278F31080074087504031974
:101F4E00A92FAA2FAF2F75084001E0007408DF00FB
:101F5E000800740875040319B52FB62FBB2F75082A
:101F6E004001DE007408DD000800740875040319D2
:101F7E00C12FC22FC72F75084001DC007408DB008B
:101F8E000800740875040319CD2FCE2FD32F7508B2
:101F9E004001E6007408E50008000E304001C5005F
:101FAE009030C6004B08C8004A08C7008731B627D4
:101FBE008F31E02F0800F5008F31F1278F31003A75
:101FCE000319EA2FEB2FE32F7508F4008F316627E4
:101FDE008F310800F4014E010F1FF62FF72FFE2F41
:101FEE0054019E1EFB2FFC2FFE2F0130F4007408AF
:101FFE0008004D346F34643465343A34203473340D
:10200E006C346134763465340A340D34003445341E
:10201E00723472346F3472343A342034253473345B
:10202E000A3400340034043410340134003464347F
:10203E000434103400340034683461346C34743435
:06204E000A340D340034D9
:020000040001F9
:0A000E00FA37FF3D9F3FFF3FFF3F21
:00000001FF
