:1000000080313728080008007E1480310B1F092832
:100010000A2835284E01961E0E280F2817288C1EF8
:100020001228132817288E31E52680313528191E0D
:100030001A281B2826280F1E1E281F2826284101A3
:1000400062088A0061080A0080313528991E292833
:100050002A2835288F1E2D282E2835284101600892
:100060008A005F080A00803135287E10090080313F
:100070003928FD015F308400003085000D308E315D
:10008000A2268031A0308400003085003D308E31C2
:10009000A2268031203084000130850020308E314E
:1000A000A22680317E10400182310E2A40012F08A5
:1000B00086008701403FB200413FB3003208840010
:1000C000330885001200253A031D67286828F329A4
:1000D0002F08860087010130810741310318810A0A
:1000E0004101C001C10100304001E100FF30410188
:1000F000C200FF30C30040012F0886008701403F47
:10010000BA00413FBB003A0884003B08850012005A
:10011000783A03198C288D2897283A0884003B08E0
:1001200085001200753A031D962897285629300835
:1001300086003108870001088400850102308107AC
:10014000003FBC00013FBD003A08013EB200003054
:100150003B3DB3002F08860087013208C03F3308BB
:10016000C13F4A292030C0000130C0024008203E73
:100170008600013087000A30A2000030A3003D084D
:10018000A5003C08A40086312026803140012208C9
:10019000303E81000A30A2000030A3003D08A500D7
:1001A0003C08A40085317825803140012308BD003A
:1001B0002208BC003C083D040319DF28E028FC2885
:1001C0004008031DE428E528B428FC284008203E08
:1001D0008600013087000108B200B3013208A40094
:1001E0003308A5002E08A7002D08A6008331D623CA
:1001F000803101304001C00720304006031D012935
:100200000229E6280D2A2030C0003C080F39B90029
:100210000A30390203180D290E2911293030B90787
:1002200013295730B9070130C0024008203E86002C
:1002300001308700390881000430BD36BC0C890BC1
:100240001D293C083D040319262927294329400874
:10025000031D2B292C29052943294008203E86000F
:10026000013087000108B200B3013208A40033084E
:10027000A5002E08A7002D08A6008331D6238031C3
:1002800001304001C00720304006031D482949299C
:100290002D290D2A3A0884003B0885000008753A8C
:1002A0000319B2280D3A031903295629B6012F085C
:1002B00086008701403FB200413FB300320884000E
:1002C000330885001200733A031D672968297329D2
:1002D0002F08860087010130810741310318810A08
:1002E0000130B600B5292F0886008701403FB200D3
:1002F000413FB300320884003308850012006C3A95
:10030000031D83298429B5292F0886008701403FD2
:10031000B200413FB30001303207840033080318B4
:10032000013E850012006C3A031D97299829B529D2
:100330002F0886008701403FB200413FB3000230E2
:100340003207840033080318013E85001200733A17
:10035000031DAB29AC29B5292F088600870103307E
:10036000810741310318810A702936080319B92918
:10037000BA29E9293008860031088700010884007D
:10038000850102308107003FB700013FB800DF2937
:1003900037088400380885000008B200B30132082D
:1003A000A4003308A5002E08A7002D08A60083315D
:1003B000D623803101304001B7070030B83D3708FF
:1003C0008400380885001200031DE729E829C829A0
:1003D0000D2A40012F088600870101308107413135
:1003E0000318810A0D2A2F0886008701403FB200BA
:1003F000413FB30032088400330885000008B40090
:10040000B5013408A4003508A5002E08A7002D0862
:10041000A6008331D6238031E92908008F31B62721
:1004200082318E31802682318E31832682318B1744
:100430000B1796304001A2000E30A3008E31B1267A
:1004400082318E318626823140010C1C282A292ACD
:10045000C02AD73093000C307D01C6001730CB0086
:100460001930CD0016307E019B000F30A6001130F0
:10047000A8000D307D01C50015307E019D004001B2
:1004800095129B160130A2000030A3008531EA25A9
:1004900082314A304001A4009030A5008F31CC2732
:1004A00082314301901A552A562A5E2A8F010A305A
:1004B00090001030920017308D00901601304001EE
:1004C000A2000030A3008531EA2582314A30400184
:1004D000A4009030A5008F31CC27823140019B12BF
:1004E0008E31C326823140015C084101E8004001A1
:1004F0005B084101E70040019B16410168088F310C
:1005000070278231410167088F31702782314101A4
:1005100068084001DE00410167084001DD00073046
:10052000DE36DD0C890B902A5D084101E7004001B1
:100530005E084101E80028304001C9009030CA003F
:10054000410168084001CC00410167084001CB002F
:100550008F314F27823102304001DE008630DD00CE
:100560009930890BB12ADD0BB12ADE0BB12AC330D9
:100570004001DD00CD30890BBB2ADD0BBB2A6E2A82
:100580007E0138104312C3124E13CE135910D910E6
:10059000D912400112141312931614139417151044
:1005A000951495168F313F27823168304001A400A1
:1005B0009030A5008F31CC27823140019316163040
:1005C000A4009030A5008F31CC2782318E31772660
:1005D00082318E317A2682318E317D268231003011
:1005E0004001A4009030A5008F31CC2782315330D8
:1005F0004001A2000630A3008E31F42682318B1711
:100600000B173A304001A4009030A5008F31CC2761
:10061000823134304101E5001230E600D63040012D
:10062000A2000030A300E330A400853135258231DB
:10063000003A03191C2B1D2B322B41016408E600E4
:100640006308E5008B304001C9009030CA004101C9
:1006500066084001CC00410165084001CB008F31A4
:100660004F2782314101660843018C00013040016F
:10067000E400452B40018F1A3E2B3F2B0E2B8F1E83
:10068000422B432B452BE4014A2B4E010F1C492BD7
:100690004A2B3A2B4001640803194F2B502B5E2B39
:1006A0004E010F104101650843018C005E2B400193
:1006B0008F1E5B2B5C2B5E2BE4010E2B4E010F1C5F
:1006C000622B632B572B0E2B803137284301901A56
:1006D0006A2B6B2BD52B40012808A900AA012908F9
:1006E000A2002A08A3000530A4000030A50087312D
:1006F0006227833181304001220784001030233D7E
:1007000080388500000843018F0040012808A900B7
:10071000AA012908A2002A08A3000530A40000307D
:10072000A50087316227833182304001220784008F
:100730001030233D803885000008430190004001BF
:100740002808A900AA012908A2002A08A300053048
:10075000A4000030A5008731622783318330400137
:10076000220784001030233D8038850000084301B3
:10077000920040012808A900AA012908A2002A081D
:10078000A3000530A4000030A50087316227833123
:1007900084304001220784001030233D80388500DA
:1007A000000843018D009016D52B08004001260853
:1007B00027040319DC2BDD2BE32B26082704031D5C
:1007C000E22BE32BE82B24088F3181278331332C54
:1007D00026088600270887004931160001040319FE
:1007E000F22BF32B132C26088600270887004931AB
:1007F000403FA800413FA90026088600270887003F
:100800004231403FAA00413FAB002B08803AAC0088
:100810002908803A2C02031D0F2C28082A020318ED
:10082000122C132C332C4001260886002708870041
:1008300042312608840027088500003FA800013FB8
:10084000A900403F28078400413F293D8500240836
:100850008000260886002708870042310130810782
:1008600041310318810A08004001980199019A0159
:100870009B019C01FF309200EF309300BF30940049
:10088000FE3095000F309600FE307E01B800C73074
:10089000C3003F30CE00DC30D9000730E400B9019E
:1008A000C401CF01DA01E501BA01C501D001DB01C4
:1008B000E601FF30BB00FF30C600FF30D100FF3043
:1008C000DC000730E700FF30BC00FF30C700FF301E
:1008D000D200FF30DD000F30E80017307D01CB0083
:1008E0000B30C6001D30C7001930CD000F307E011F
:1008F000A60016309C001130A8000D307D01C50007
:1009000015307E019D00BD01BE01BF01C801C901B6
:10091000CA01D301D401D501E901EA01EB010800C4
:100920007D35A03E860087010030C03FC13F4201B7
:100930009D1C9B2C9C2CAD2C7D35A03E86008701F8
:1009400001154101460847040319A72CA82CAD2C1A
:1009500047088A0046080A00843142011D1DB12C57
:10096000B22CC32C7D35A03E860087018114410145
:10097000480849040319BD2CBE2CC32C49088A0021
:1009800048080A008431420119084001A0007D088E
:10099000013E0739A10021086806031DD02CD12C87
:1009A000D22CDC2C7D08B03E860087012008810017
:1009B0002108FD000130E70741014A084B040319F3
:1009C000E22CE32CE82C4B088A004A080A00843108
:1009D000080070088600870144310108F400F50121
:1009E000F435F50D7408700786007508713D8700B1
:1009F0007208C03F7308C13F700886008701463106
:100A000001080319042D052D112D7008860087019A
:100A1000453170088400850105310008013E013927
:100A200081007008860087014431700884008501C8
:100A300004310008013E01398100700886008701F9
:100A4000463170088400850105310008F400700803
:100A5000840085010431000874060319302D322DFD
:100A60000130332D0030810008004001220886004B
:100A70008701453122088400850104310008010600
:100A8000031D432D442D4F2D22088600870146313A
:100A90000108031D4C2D4D2D4F2D0030772D2208C0
:100AA0008600870145310108A500A601A535A60DE0
:100AB0002508220786002608233D87002408840095
:100AC0008501403F803F413F813F220886008701EA
:100AD000453122088400850105310008013E0139B5
:100AE000810022088600870146318101013008001B
:100AF0004001A701A801220823040319802D812D9C
:100B0000AE2D0130A6008B2D0130A235A30D890B2F
:100B1000852D0130A607A31F8E2D8F2D842D01302A
:100B2000A735A80D890B902D23082502031D9A2DAA
:100B300022082402031C9D2D9E2DA32D2208A40211
:100B40002308A53B27140130A336A20C890BA42D42
:100B50000130A602031DAD2DAE2D8F2D2808A30058
:100B60002708A20008004E01991290304101DF00D1
:100B70000430E0004E011912DB304101E100073082
:100B8000E200483042019F0090309D0026309E00D8
:100B900038309B0001309C0002304001A200003040
:100BA000A3008F31032785318D304001A2000E3024
:100BB000A3008F31122785314101CE01CF014001C1
:100BC000EB01EA010830E900FD01E801E7014E010F
:100BD000991608004001A601A701112E40011B151E
:100BE00008304001A5009D30A4000530890BF62D8A
:100BF000A40BF62DA50BF62D003240011B11083079
:100C00004001A5009D30A4000530890B052EA40BE2
:100C1000052EA50B052E003201304001A60700303D
:100C2000A73D2708803AA4002308803A2402031D28
:100C30001B2E22082602031C1E2E1F2EEE2D08003E
:100C40004001220823040319262E272E4E2E0130A0
:100C5000A600312E0130A235A30D890B2B2E0130B9
:100C6000A607A31F342E352E2A2E23082502031D86
:100C70003B2E22082402031C3E2E3F2E432E220828
:100C8000A4022308A53B0130A336A20C890B442EF5
:100C90000130A602031D4D2E4E2E352E2508A30031
:100CA0002408A20008000030410145020B3003195E
:100CB0004402031C5C2E5D2E632E8F31E5278631A6
:100CC0004001E300822E8F31E52786314001E200AA
:100CD0006208F600F7016308F800F9017808F900E6
:100CE000F80176087804FB0077087904FC00D63018
:100CF000F0000030F1007C08F3007B08F200843142
:100D0000E92486314101C401C5010800B33405342A
:100D100000340034E5340F343E34073400340034FA
:100D2000BA340E34003400347D340E3400340034D0
:100D30000034003400340034003400340034003413
:100D40000034003400340034003400340034003403
:100D500000340034F4340E340034003403340F34DF
:100D600012340F340034003400340034A13407341A
:100D7000003400340034003491340E340034003434
:100D8000A4340F340034003483340E34003400347F
:100D900000340034003400340034003400340034B3
:100DA00000340034003400340034003400340034A3
:100DB00000340034003400340034003421340F3463
:100DC00030340F34003400340034003457304001E4
:100DD000A2000230A3000030A4008731152786311D
:100DE00040015808D200D3015708D400D501540857
:100DF000D500D40152085404D90053085504DA0030
:100E0000590A031D072F5A0A031D072F082F0F2FFA
:100E10005930CE009030CF008E31D7268631400138
:100E20005A08D1005908D000080040012208A70044
:100E30002408A6002308A500372F2708860087016D
:100E4000010843018C004E010F1C272F282F232F50
:100E50000F10400127088600870143010C0881001C
:100E600001304001A7070130A5020030A63B25084C
:100E70002604031D3C2F3D2F1D2F08004E01191A7B
:100E8000422F432F482F4001220842019A005F2F32
:100E90004001690803194D2F4E2F5F2F6B08B83E94
:100EA00086008701220881006B08013E0739A300F4
:100EB0002308EB004E01191201304001E9024E01F6
:100EC000191608004001A601A701221C682F692FEE
:100ED0006D2F2408A6072508A73D0130A435A50DD0
:100EE000890B6E2F0130A336A20C890B732F2208B9
:100EF0002304031D7C2F7D2F652F2708A3002608C0
:100F0000A200080040014408C8004308C700942F0D
:100F10004208AE004108AD004730AF004508B000C0
:100F2000B1018031562087314001470884004808CC
:100F300085001200031D9D2F9E2F882FC101C20125
:100F40000800483054019F0090309D0026309E00DC
:100F500019309B009C0176304001A2000E30A300A6
:100F60008F312127873189304001A2000E30A30044
:100F70008F31302787314101D401D5010800A834D1
:100F80000E34003400346634033400340034153435
:100F900007340034003400340034003400340034AA
:100FA00000340034003400340034003400340034A1
:100FB0000034003400340830400169020318E12F86
:100FC000E22FF32F6A08B83E86008701010842012C
:100FD0009A0040016A08013E0739F0007008EA00F3
:100FE0000130E907F52F4E01191208006030510158
:100FF0008D0040308F009101043093009201080071
:101CEC00080042019D17080042011D160800420120
:101CFC009E16080054019D17080054019E160800FA
:101D0C004B019E17080054011D121D1608004201BC
:101D1C001D121D1608004001220854019A000800EB
:101D2C0001304101C4070030C53D080040012308C3
:101D3C00E0002208DF000800640080010131890BFB
:101D4C00A32E00344E0119100F1043018F01900186
:101D5C0092018D010800400123084101DE00400181
:101D6C0022084101DD00080040016908031DBF2E57
:101D7C00C12E0130C22E003008008631E6268E318D
:101D8C0040015108DC005008DB0008004E010C102B
:101D9C0000304001A2000030A3008E319C268E3111
:101DAC00080076304001C9009030CA004F08CC00C2
:101DBC004E08CB008F314F278E31E32E08004101A6
:101DCC005D085E040319EB2EEC2EF12E5E088A00E2
:101DDC005D080A008E314E018C1208004001220869
:101DEC0023040319FA2EFB2E022F23084101CB00EA
:101DFC00400122084101CA000800400122082304C6
:101E0C000319092F0A2F112F23084101C900400182
:101E1C0022084101C80008004001220823040319CC
:101E2C00182F192F202F23084101C7004001220829
:101E3C004101C60008004001220823040319272F82
:101E4C00282F2F2F23084101D300400122084101E4
:101E5C00D20008004001220823040319362F372F23
:101E6C003E2F23084101D100400122084101D0003E
:101E7C0008004301901264308F0004309000103041
:101E8C0092008D0190164001A801833166238F3199
:101E9C0008004B304001CD000030C100C2004A08A0
:101EAC00C4004908C3004D30C500873182278F31EB
:101EBC0008004001A3008F31A4278F31003A031989
:101ECC00682F692F612F40012308A2008E319126C3
:101EDC008F3108004001A4008E31BA268F31003AB0
:101EEC000319792F7A2F722F40012408A200873111
:101EFC003E278F3108004001A3008F31A4278F317A
:101F0C00003A03198A2F8B2F832F40012308A2003C
:101F1C008E3191268F3108005C304B019D009C0165
:101F2C0074309F0003304101DD000030DE004E01B3
:101F3C008C12961687304B019E0008004001A201BE
:101F4C004E010F1FAA2FAB2FB32F54019E1EAF2F84
:101F5C00B02FB32F01304001A2004001220808002D
:101F6C008731F6278F31843134248F318F3192278A
:101F7C008F318531B3258F318731A1278F318E3148
:101F8C00A8268F318E31CC268F310800DA2F240809
:101F9C0084002508850000088F315F278F310130C0
:101FAC004001A4070030A53D400124088400250809
:101FBC0085001200031DE32FE42FCD2F08004001F4
:101FCC006808B03E860087010108F1006808013EF0
:101FDC000739F0007008E8004E01991240016708BB
:101FEC000319F92FFA2FFC2F0130E7024E01991635
:101FFC00710808007234653467346934733474348E
:10200C006534723469346E34673420346834613426
:10201C006E3464346C34653472340A340D340034E8
:10202C0065346E34613462346C3469346E346734C4
:10203C0020347534733461347234743431340A346A
:10204C000D340034543465346D347034653472346A
:10205C00613474347534723465343A342034253434
:10206C0075340A340D34003465346E34743465348C
:10207C00723469346E34673420346C346F346F349A
:10208C0070340A340D3400344D346F346434653498
:10209C003A3420346D3461347334743465347234AE
:1020AC000A340D340034533450344934203452340F
:1020BC0065346134643420344534723472346F3492
:1020CC00723400344D346F34643465343A34203413
:1020DC0073346C346134763465340A340D34003422
:1020EC004534723472346F3472343A3420342534BB
:1020FC0073340A34003400340434103401340034A2
:10210C0064340434103400340034253478340D3401
:04211C000A3400344D
:020000040001F9
:0A000E00FA37FF3D9F3FFF3FFF3F21
:00000001FF
