:0400000080313728EC
:1000060008007E1480310B1F09280A2835284E0166
:10001600961E0E280F2817288C1E1228132817281C
:100026008F31002780313528191E1A281B282628CB
:100036000F1E1E281F282628410162088A00610813
:100046000A0080313528991E29282A2835288F1E2E
:100056002D282E283528410160088A005F080A00ED
:10006600803135287E10090080313928FD015F3046
:100076008400003085000D308731F8278031A030AC
:100086008400003085003D308731F82780312030EC
:1000960084000130850020308731F82780317E10BA
:1000A600400182310E2A40012F0886008701403F19
:1000B600B200413FB30032088400330885001200C5
:1000C600253A031D67286828F3292F08860087012B
:1000D6000130810741310318810A4101C001C10184
:1000E60000304001E100FF304101C200FF30C30093
:1000F60040012F0886008701403FBA00413FBB0000
:100106003A0884003B0885001200783A03198C28C7
:100116008D2897283A0884003B0885001200753A16
:10012600031D96289728562930088600310887002F
:1001360001088400850102308107003FBC00013FB1
:10014600BD003A08013EB20000303B3DB3002F0827
:10015600860087013208C03F3308C13F4A29203054
:10016600C0000130C0024008203E860001308700F2
:100176000A30A2000030A3003D08A5003C08A400F8
:1001860086310726803140012208303E81000A3040
:10019600A2000030A3003D08A5003C08A40085315C
:1001A6005F25803140012308BD002208BC003C08C1
:1001B6003D040319DF28E028FC284008031DE42835
:1001C600E528B428FC284008203E86000130870038
:1001D6000108B200B3013208A4003308A5002E08B6
:1001E600A7002D08A6008331BF23803101304001CE
:1001F600C00720304006031D01290229E6280D2AE2
:100206002030C0003C080F39B9000A303902031803
:100216000D290E2911293030B90713295730B9078E
:100226000130C0024008203E8600013087003908B0
:1002360081000430BD36BC0C890B1D293C083D04E9
:1002460003192629272943294008031D2B292C2970
:10025600052943294008203E860001308700010811
:10026600B200B3013208A4003308A5002E08A70087
:100276002D08A6008331BF23803101304001C0071D
:1002860020304006031D482949292D290D2A3A0800
:1002960084003B0885000008753A0319B2280D3A18
:1002A600031903295629B6012F0886008701403F06
:1002B600B200413FB30032088400330885001200C3
:1002C600733A031D6729682973292F088600870159
:1002D6000130810741310318810A0130B600B52982
:1002E6002F0886008701403FB200413FB300320825
:1002F60084003308850012006C3A031D8329842983
:10030600B5292F0886008701403FB200413FB30060
:1003160001303207840033080318013E85001200BD
:100326006C3A031D97299829B5292F08860087015D
:10033600403FB200413FB300023032078400330829
:100346000318013E85001200733A031DAB29AC2940
:10035600B5292F088600870103308107413103182C
:10036600810A702936080319B929BA29E9293008FA
:100376008600310887000108840085010230810764
:10038600003FB700013FB800DF293708840038086E
:1003960085000008B200B3013208A4003308A500A6
:1003A6002E08A7002D08A6008331BF238031013017
:1003B6004001B7070030B83D37088400380885008B
:1003C6001200031DE729E829C8290D2A40012F0834
:1003D600860087010130810741310318810A0D2A01
:1003E6002F0886008701403FB200413FB300320824
:1003F6008400330885000008B400B5013408A40061
:100406003508A5002E08A7002D08A6008331BF23B6
:100416008031E92908008F31D12782318E31972624
:1004260082318E319A2682318B170B17AD304001FF
:10043600A2000E30A3008E31C22682318E319D2657
:10044600823140010C1C282A292AA92A95129B16BA
:100456000130A2000030A3008531D12582314A3017
:100466004001A4009030A5008F31E7278231430177
:10047600901A3E2A3F2A472A8F010A3090001030F0
:10048600920017308D00901601304001A200003016
:10049600A3008531D12582314A304001A400903035
:1004A600A5008F31E727823140019B128E31D42679
:1004B600823140015C084101E80040015B084101CE
:1004C600E70040019B16410168088F318B27823176
:1004D600410167088F318B2782314101680840014D
:1004E600DE00410167084001DD000730DE36DD0C25
:1004F600890B792A5D084101E70040015E08410148
:10050600E80028304001C9009030CA00410168085F
:100516004001CC00410167084001CB008F316A27BA
:10052600823102304001DE008630DD009930890BD1
:100536009A2ADD0B9A2ADE0B9A2AC3304001DD0087
:10054600CD30890BA42ADD0BA42A572A7E01381048
:100556004312C3124E13CE135910D910D9124001AB
:100566001214131293161413941715109514951646
:100576008F315A27823168304001A4009030A5009F
:100586008F31E7278231400193161630A400903050
:10059600A5008F31E72782318E318E2682318E314A
:1005A600912682318E319426823100304001A4009A
:1005B6009030A5008F31E72782313A304001A20002
:1005C6000630A3008F310F2782318B170B173A3075
:1005D6004001A4009030A5008F31E72782313430E6
:1005E6004101E5001230E600D6304001A20000309D
:1005F600A300E330A40085311C258231003A03199B
:10060600052B062B1B2B41016408E6006308E50059
:100616008B304001C9009030CA0041016608400194
:10062600CC00410165084001CB008F316A27823139
:100636004101660843018C0001304001E4002E2B85
:1006460040018F1A272B282BF72A8F1E2B2B2C2B9A
:100656002E2BE401332B4E010F1C322B332B232B75
:10066600400164080319382B392B472B4E010F1014
:100676004101650843018C00472B40018F1E442B26
:10068600452B472BE401F72A4E010F1C4B2B4C2B15
:10069600402BF72A803137284301901A532B542BCD
:1006A600BE2B40012808A900AA012908A2002A0891
:1006B600A3000530A4000030A50087314927833107
:1006C60081304001220784001030233D80388500A8
:1006D600000843018F0040012808A900AA01290843
:1006E600A2002A08A3000530A4000030A500873127
:1006F6004927833182304001220784001030233D90
:100706008038850000084301900040012808A900B0
:10071600AA012908A2002A08A3000530A400003077
:10072600A5008731492783318330400122078400A1
:100736001030233D803885000008430192004001B7
:100746002808A900AA012908A2002A08A300053042
:10075600A4000030A5008731492783318430400149
:10076600220784001030233D8038850000084301AD
:100776008D009016BE2B0800400126082704031999
:10078600C52BC62BCC2B26082704031DCB2BCC2B25
:10079600D12B24088F319C2783311C2C26088600F8
:1007A600270887004931160001040319DB2BDC2BCF
:1007B600FC2B26088600270887004931403FA80001
:1007C600413FA90026088600270887004231403F9E
:1007D600AA00413FAB002B08803AAC002908803ABA
:1007E6002C02031DF82B28082A020318FB2BFC2BCE
:1007F6001C2C40012608860027088700423126085F
:10080600840027088500003FA800013FA900403F5B
:1008160028078400413F293D8500240880002608DA
:1008260086002708870042310130810741310318CD
:10083600810A08004001980199019A019B019C01D7
:10084600FF309200D7309300BF309400FE30950001
:100856000F309600FE307E01B800C730C3003F302F
:10086600CE00DC30D9000730E400B901C401CF0165
:10087600DA01E501BA01C501D001DB01E601FF306D
:10088600BB00FF30C600FF30D100FF30DC00073070
:10089600E700FF30BC00FF30C700FF30D200FF305A
:1008A600DD000F30E8000C307D01C6001730CB00AC
:1008B6001930CD0016307E019B000F30A600113096
:1008C600A8000D307D01C50015307E019D00BD01DB
:1008D600BE01BF01C801C901CA01D301D401D501B6
:1008E600E901EA01EB0108007D35A03E860087019B
:1008F6000030C03FC13F42019D1C822C832C942CAA
:100906007D35A03E86008701011541014608470452
:1009160003198E2C8F2C942C47088A0046080A004F
:10092600843142011D1D982C992CAA2C7D35A03EA0
:100936008600870181144101480849040319A42C43
:10094600A52CAA2C49088A0048080A0084314201CD
:1009560019084001A0007D08013E0739A1002108C1
:100966006806031DB72CB82CB92CC32C7D08B03EE5
:1009760086008701200881002108FD000130E70775
:1009860041014A084B040319C92CCA2CCF2C4B0829
:100996008A004A080A008431080070088600870128
:1009A60044310108F400F501F435F50D74087007BB
:1009B60086007508713D87007208C03F7308C13F05
:1009C600700886008701463101080319EB2CEC2CD0
:1009D600F82C70088600870145317008840085016F
:1009E60005310008013E0139810070088600870143
:1009F600443170088400850104310008013E013944
:100A060081007008860087014631700884008501E0
:100A160005310008F40070088400850104310008DF
:100A260074060319172D192D01301A2D0030810077
:100A3600080040012208860087014531220884000B
:100A46008501043100080106031D2A2D2B2D362DA4
:100A560022088600870146310108031D332D342DF7
:100A6600362D00305E2D22088600870145310108AB
:100A7600A500A601A535A60D25082207860026088D
:100A8600233D8700240884008501403F803F413F85
:100A9600813F2208860087014531220884008501AE
:100AA60005310008013E01398100220886008701D0
:100AB60046318101013008004001A701A801220842
:100AC60023040319672D682D952D0130A600722D7C
:100AD6000130A235A30D890B6C2D0130A607A31F8B
:100AE600752D762D6B2D0130A735A80D890B772D29
:100AF60023082502031D812D22082402031C842DB0
:100B0600852D8A2D2208A4022308A53B271401302F
:100B1600A336A20C890B8B2D0130A602031D942D42
:100B2600952D762D2808A3002708A20008004E015F
:100B3600991277304101DF000430E0004E011912AE
:100B4600C2304101E1000730E200483042019F0017
:100B560090309D0026309E0038309B0001309C006E
:100B6600FF304001A2000730A3008F311E278531D8
:100B7600A4304001A2000E30A3008F312D2785310D
:100B86004101CE01CF014001EB01EA010830E90045
:100B9600FD01E801E7014E01991608004001A60192
:100BA600A701F82D40011B1508304001A5009D3016
:100BB600A4000530890BDD2DA40BDD2DA50BDD2D45
:100BC600003240011B1108304001A5009D30A400F1
:100BD6000530890BEC2DA40BEC2DA50BEC2D00326A
:100BE60001304001A6070030A73D2708803AA4003F
:100BF6002308803A2402031D022E22082602031C23
:100C0600052E062ED52D08004001220823040319BF
:100C16000D2E0E2E352E0130A600182E0130A235CF
:100C2600A30D890B122E0130A607A31F1B2E1C2E07
:100C3600112E23082502031D222E22082402031C3E
:100C4600252E262E2A2E2208A4022308A53B013093
:100C5600A336A20C890B2B2E0130A602031D342EBF
:100C6600352E1C2E2508A3002408A20008000030FB
:100C7600410145020B3003194402031C432E442E46
:100C86004A2E8731DD2786314001E300692E873100
:100C9600DD2786314001E2006208F600F7016308AD
:100CA600F800F9017808F900F80176087804FB00E5
:100CB60077087904FC00D630F0000030F1007C089B
:100CC600F3007B08F2008431D02486314101C4014F
:100CD600C50108009A34053400340034DD34073485
:100CE6002534073400340034CB340E340034003459
:100CF60094340E34003400340034003400340034AC
:100D0600003400340034003400340034003400343D
:100D16000034003400340034003400340F340F340F
:100D2600003400341E340F342D340F3400340034B4
:100D3600003400348834073400340034003400347E
:100D4600A8340E3400340034BF340F340034003479
:100D56009A340E3400340034003400340034003445
:100D660000340034003400340034003400340034DD
:100D760000340034003400340034003400340034CD
:100D8600003400343C340F344B340F340034003418
:100D96000034003457304001A2000230A300003076
:100DA600A4008631FC26863140015808D200D301C2
:100DB6005708D400D5015408D500D401520854046C
:100DC600D90053085504DA00590A031DEE2E5A0AB3
:100DD600031DEE2EEF2EF62E5930CE009030CF00AA
:100DE6008E31F226863140015A08D1005908D000CA
:100DF600080040012208A7002408A6002308A50031
:100E06001E2F270886008701010843018C004E012A
:100E16000F1C0E2F0F2F0A2F0F10400127088600D8
:100E2600870143010C08810001304001A70701300A
:100E3600A5020030A63B25082604031D232F242FD8
:100E4600042F08004E01191A292F2A2F2F2F40018F
:100E5600220842019A00462F400169080319342FDF
:100E6600352F462F6B08B83E860087012208810081
:100E76006B08013E0739A3002308EB004E01191247
:100E860001304001E9024E01191608004001A60191
:100E9600A701221C4F2F502F542F2408A6072508E0
:100EA600A73D0130A435A50D890B552F0130A3367A
:100EB600A20C890B5A2F22082304031D632F642FCB
:100EC6004C2F2708A3002608A2000800400144086A
:100ED600C8004308C7007B2F4208AE004108AD009A
:100EE6004730AF004508B000B10180315620873148
:100EF600400147088400480885001200031D842F1E
:100F0600852F6F2FC101C2010800483054019F0090
:100F160090309D0026309E0019309B009C010330C6
:100F26004001A2000030A3008F313C278731A0305A
:100F36004001A2000E30A3008F314B2787314101BB
:100F4600D401D5010800B9340E34003400344F34CE
:100F5600033400340034FC340634003400340034E6
:100F660000340034003400340034003400340034DB
:100F760000340034003400340034003400340830C7
:100F8600400169020318C82FC92FDA2F6A08B83E34
:100F960086008701010842019A0040016A08013E65
:100FA6000739F0007008EA000130E907DC2F4E012E
:100FB6001912080040016808B03E86008701010842
:100FC600F1006808013E0739F0007008E8004E019C
:100FD6009912400167080319F12FF22FF42F0130FF
:100FE600E7024E019916710808006400800101317C
:0A0FF600890BF92F003408000800F1
:101D1C0042019D17080042011D16080042019E1643
:101D2C00080054019D17080054019E1608004B0131
:101D3C009E17080054011D121D16080042011D12A9
:101D4C001D1608004001220854019A0008000130B9
:101D5C004101C4070030C53D080040012308E000E4
:101D6C002208DF0008004E0119100F1043018F01EB
:101D7C00900192018D010800400123084101DE0011
:101D8C00400122084101DD00080040016908031DE3
:101D9C00D02ED22E0130D32E003008008631CD2625
:101DAC008E3140015108DC005008DB000800603027
:101DBC0051018D0040308F0091010430930092014D
:101DCC0008004E010C1000304001A2000030A300AE
:101DDC008E31B3268E31080076304001C900903028
:101DEC00CA004F08CC004E08CB008F316A278E31C9
:101DFC00FE2E080041015D085E040319062F072F13
:101E0C000C2F5E088A005D080A008F314E018C127F
:101E1C0008004001220823040319152F162F1D2F2B
:101E2C0023084101CB00400122084101CA000800EF
:101E3C004001220823040319242F252F2C2F2308BB
:101E4C004101C900400122084101C80008004001BD
:101E5C00220823040319332F342F3B2F230841016D
:101E6C00C700400122084101C600080040012208B9
:101E7C0023040319422F432F4A2F23084101D30077
:101E8C00400122084101D20008004001220823042D
:101E9C000319512F522F592F23084101D100400112
:101EAC0022084101D00008004301901264308F00D9
:101EBC0004309000103092008D0190164001A80162
:101ECC0083314F238F3108004B304001CD0000305F
:101EDC00C100C2004A08C4004908C3004D30C50007
:101EEC00873169278F3108004001A3008F31BF274C
:101EFC008F31003A0319832F842F7C2F4001230844
:101F0C00A2008E31A8268F3108004001A4008E312A
:101F1C00CB268F31003A0319942F952F8D2F40012A
:101F2C002408A200873125278F3108004001A30027
:101F3C008F31BF278F31003A0319A52FA62F9E2F63
:101F4C0040012308A2008E31A8268F3108005C3096
:101F5C004B019D009C0174309F00FE304101DD005F
:101F6C000730DE004E018C12961687304B019E0016
:101F7C0008004001A2014E010F1FC52FC62FCE2F06
:101F8C0054019E1ECA2FCB2FCE2F01304001A20030
:101F9C004001220808008E31DD268F3184311D244A
:101FAC008F318F31AD278F3185319A258F31873124
:101FBC0088278F318E31B9268F318E31E7268F31BC
:101FCC000800F52F240884002508850000088F31AF
:101FDC007A278F3101304001A4070030A53D400124
:101FEC0024088400250885001200031DFE2FFF2FF6
:101FFC00E82F0800723465346734693473347434F0
:10200C006534723469346E34673420346834613426
:10201C006E3464346C34653472340A340D340034E8
:10202C0065346E34613462346C3469346E346734C4
:10203C0020347534733461347234743431340A346A
:10204C000D340034543465346D347034653472346A
:10205C00613474347534723465343A342034253434
:10206C0075340A340D34003465346E34743465348C
:10207C00723469346E34673420346C346F346F349A
:10208C0070340A340D3400344D346F346434653498
:10209C003A3420346D3461347334743465347234AE
:1020AC000A340D340034533450344934203452340F
:1020BC0065346134643420344534723472346F3492
:1020CC00723400344D346F34643465343A34203413
:1020DC0073346C346134763465340A340D34003422
:1020EC004534723472346F3472343A3420342534BB
:1020FC0073340A34003400340A3410341734003486
:10210C0064340034103401340034253478340D3404
:04211C000A3400344D
:020000040001F9
:0A000E00FA37FF3D9F3FFF3FFF3F21
:00000001FF
