:1000000080313728080001347E1480310B1F092805
:100010000A2835284E01961E0E280F2817288C1EF8
:100020001228132817288F31122780313528191EDE
:100030001A281B2826280F1E1E281F2826284101A3
:1000400064088A0063080A0080313528991E29282F
:100050002A2835288F1E2D282E2835284101620890
:100060008A0061080A00803135287E10090080313D
:100070003928803103208031EA00FD015F3084009F
:10008000003085000B308E31B1268031A0308400E5
:10009000003085003F308E31B12680312030840021
:1000A0000130850020308E31B12680317E10400134
:1000B0008231122A40012F0886008701403FB2009A
:1000C000413FB30032088400330885001200253A0E
:1000D000031D6B286C28F7292F0886008701013043
:1000E000810741310318810A4101C001C10100307B
:1000F0004001DF00FF304101C200FF30C30040017A
:100100002F0886008701403FBA00413FBB003A08F4
:1001100084003B0885001200783A03199028912842
:100120009B283A0884003B0885001200753A031D9D
:100130009A289B285A293008860031088700010830
:100140008400850102308107003FBC00013FBD00F3
:100150003A08013EB20000303B3DB3002F08860054
:1001600087013208C03F3308C13F4E292030C0000C
:100170000130C0024008203E8600013087000A306E
:10018000A2000030A3003D08A5003C08A400863171
:100190000426803140012208303E81000A30A2004E
:1001A0000030A3003D08A5003C08A40085315C2573
:1001B000803140012308BD002208BC003C083D04FA
:1001C0000319E328E42800294008031DE828E9284A
:1001D000B82800294008203E860001308700010829
:1001E000B200B3013208A4003308A5002E08A7000E
:1001F0002D08A6008331BA23803101304001C007A9
:1002000020304006031D05290629EA28112A20303E
:10021000C0003C080F39B9000A303902031811290F
:10022000122915293030B90717295730B90701307D
:10023000C0024008203E8600013087003908810056
:100240000430BD36BC0C890B21293C083D04031940
:100250002A292B2947294008031D2F29302909293C
:1002600047294008203E8600013087000108B2007F
:10027000B3013208A4003308A5002E08A7002D08FA
:10028000A6008331BA23803101304001C0072030FD
:100290004006031D4C294D293129112A3A088400B2
:1002A0003B0885000008753A0319B6280D3A031972
:1002B00007295A29B6012F0886008701403FB2005E
:1002C000413FB30032088400330885001200733ABE
:1002D000031D6B296C2977292F08860087010130BF
:1002E000810741310318810A0130B600B9292F086E
:1002F00086008701403FB200413FB30032088400CE
:100300003308850012006C3A031D87298829B92912
:100310002F0886008701403FB200413FB300013003
:100320003207840033080318013E850012006C3A3E
:10033000031D9B299C29B9292F0886008701403F6E
:10034000B200413FB3000230320784003308031883
:10035000013E85001200733A031DAF29B029B92967
:100360002F08860087010330810741310318810A75
:10037000742936080319BD29BE29ED2930088600E5
:100380003108870001088400850102308107003FA1
:10039000B700013FB800E32937088400380885001A
:1003A0000008B200B3013208A4003308A5002E08EB
:1003B000A7002D08A6008331BA2380310130400107
:1003C000B7070030B83D37088400380885001200B0
:1003D000031DEB29EC29CC29112A40012F088600A6
:1003E00087010130810741310318810A112A2F0842
:1003F00086008701403FB200413FB30032088400CD
:10040000330885000008B400B5013408A40035089D
:10041000A5002E08A7002D08A6008331BA2380313D
:10042000ED2908008F31D12782318E319526823116
:100430008E31982682318B170B17AB304001A2000A
:100440000E30A3008E31C92682318E319B26823137
:1004500040010C1C2C2A2D2AA42A7E01381043129C
:10046000C3124E13CE135910D910D91240011214D1
:1004700013169312141394171510951495128E31A8
:10048000EE26823101304001A2000030A300853108
:10049000CE2582314A304001A4009030A5008F3132
:1004A000E727823140019B128E31DB2682314001E9
:1004B0005C084101EA0040015B084101E90040019C
:1004C0009B1641016A088F319D27823141016908DD
:1004D0008F319D27823141016A084001DE004101D0
:1004E00069084001DD000730DE36DD0C890B742A17
:1004F0005D084101E90040015E084101EA00283041
:100500004001C9009030CA0041016A084001CC0096
:10051000410169084001CB008F317C2782310230D4
:100520004001DE008630DD009930890B952ADD0B15
:10053000952ADE0B952AC3304001DD00CD30890BB2
:100540009F2ADD0B9F2A522A7E0138104312C312C4
:100550004E13CE135910D910D91240011214131290
:100560009316141394171510951495168F316C2744
:10057000823168304001A4009030A5008F31E72718
:100580008231400193161630A4009030A5008F31BF
:10059000E72782318E318C2682318E318F2682314F
:1005A0008E319226823100304001A4009030A500A7
:1005B0008F31E727823137304001A2000630A30097
:1005C0008F31212782318B170B173A304001A4005D
:1005D0009030A5008F31E727823134304101E700A8
:1005E0001230E800D8304001A2000030A300E5300E
:1005F000A400853119258231003A0319002B012B03
:10060000162B41016608E8006508E7008B304001C1
:10061000C9009030CA00410168084001CC00410186
:1006200067084001CB008F317C2782314101680887
:1006300043018C0001304001E200292B40018F1A58
:10064000222B232BF22A8F1E262B272B292BE2016C
:100650002E2B4E010F1C2D2B2E2B1E2B4001620822
:100660000319332B342B422B4E010F104101670825
:1006700043018C00422B40018F1E3F2B402B422B0D
:10068000E201F22A4E010F1C462B472B3B2BF22A8C
:10069000803137284301901A4E2B4F2BB92B400144
:1006A0002808A900AA012908A2002A08A3000530E9
:1006B000A4000030A50087313F27833181304001FD
:1006C000220784001030233D803885000008430154
:1006D0008F0040012808A900AA012908A2002A08C1
:1006E000A3000530A4000030A50087313F278331E7
:1006F00082304001220784001030233D803885007D
:1007000000084301900040012808A900AA01290817
:10071000A2002A08A3000530A4000030A5008731FC
:100720003F27833183304001220784001030233D6E
:100730008038850000084301920040012808A90084
:10074000AA012908A2002A08A3000530A40000304D
:10075000A50087313F278331843040012207840080
:100760001030233D80388500000843018D0090162D
:10077000B92B08004001260827040319C02BC12B00
:10078000C72B26082704031DC62BC72BCC2B2408F8
:100790008F31AE278331172C260886002708870063
:1007A0004931160001040319D62BD72BF72B260845
:1007B0008600270887004931403FA800413FA90033
:1007C00026088600270887004231403FAA00413FA3
:1007D000AB002B08803AAC002908803A2C02031D9C
:1007E000F32B28082A020318F62BF72B172C4001AD
:1007F000260886002708870042312608840027083B
:100800008500003FA800013FA900403F2807840061
:10081000413F293D850024088000260886002708DE
:10082000870042310130810741310318810A0800F5
:100830004001980199019A019B019C01FF309200AF
:10084000EF309300BF309400FE3095000F309600DB
:10085000FE307E01B800C730C3003F30CE00DC3030
:10086000D9000730E400B901C401CF01DA01E50184
:10087000BA01C501D001DB01E601FF30BB00FF304A
:10088000C600FF30D100FF30DC000730E700FF304A
:10089000BC00FF30C700FF30D200FF30DD000F305A
:1008A000E80017307D01CB000B30C6001D30C700BB
:1008B0001930CD000F307E01A60016309C0011309B
:1008C000A8000D307D01C50015307E019D00BD01E1
:1008D000BE01BF01C801C901CA01D301D401D501BC
:1008E000E901EA01EB0108007D35A03E86008701A1
:1008F0000030C03FC13F42019D1C7F2C802C912CB9
:100900007D35A03E86008701011541014608470458
:1009100003198B2C8C2C912C47088A0046080A005E
:10092000843142011D1D952C962CA72C7D35A03EAF
:100930008600870181144101480849040319A12C4C
:10094000A22CA72C49088A0048080A0084314201D9
:1009500019084001A0007D08013E0739A1002108C7
:100960006606031DB42CB52CB62CC02C7D08B03EF9
:1009700086008701200881002108FD000130E5077D
:1009800041014A084B040319C62CC72CCC2C4B0838
:100990008A004A080A00843108007008860087012E
:1009A00044310108F400F501F435F50D74087007C1
:1009B00086007508713D87007208C03F7308C13F0B
:1009C000700886008701463101080319E82CE92CDC
:1009D000F52C700886008701453170088400850178
:1009E00005310008013E0139810070088600870149
:1009F000443170088400850104310008013E01394A
:100A000081007008860087014631700884008501E6
:100A100005310008F40070088400850104310008E5
:100A200074060319142D162D0130172D0030810086
:100A30000800400122088600870145312208840011
:100A40008501043100080106031D272D282D332DB3
:100A500022088600870146310108031D302D312D03
:100A6000332D00305B2D22088600870145310108B7
:100A7000A500A601A535A60D250822078600260893
:100A8000233D8700240884008501403F803F413F8B
:100A9000813F2208860087014531220884008501B4
:100AA00005310008013E01398100220886008701D6
:100AB00046318101013008004001A701A801220848
:100AC00023040319642D652D922D0130A6006F2D8E
:100AD0000130A235A30D890B692D0130A607A31F94
:100AE000722D732D682D0130A735A80D890B742D3B
:100AF00023082502031D7E2D22082402031C812DBC
:100B0000822D872D2208A4022308A53B271401303B
:100B1000A336A20C890B882D0130A602031D912D4E
:100B2000922D732D2808A3002708A20008004E016B
:100B3000991274304101E1000430E2004E011912B3
:100B4000B8304101E3000730E400483042019F0023
:100B500090309D0026309E0038309B0001309C0074
:100B60008B304001A2000E30A3008F313027853139
:100B7000A2304001A2000E30A3008F313F27853103
:100B80004101CE01CF014001E901E8010830E70051
:100B9000FD01E601E5014E01991608004001A6019C
:100BA000A701F52D40011B1508304001A5009D301F
:100BB000A4000530890BDA2DA40BDA2DA50BDA2D54
:100BC000003240011B1108304001A5009D30A400F7
:100BD0000530890BE92DA40BE92DA50BE92D003279
:100BE00001304001A6070030A73D2708803AA40045
:100BF0002308803A2402031DFF2D22082602031C2D
:100C0000022E032ED22D08004001220823040319CE
:100C10000A2E0B2E322E0130A600152E0130A235E1
:100C2000A30D890B0F2E0130A607A31F182E192E16
:100C30000E2E23082502031D1F2E22082402031C4A
:100C4000222E232E272E2208A4022308A53B0130A2
:100C5000A336A20C890B282E0130A602031D312ECB
:100C6000322E192E2508A3002408A2000800003007
:100C7000410145020B3003194402031C402E412E52
:100C8000472E8731D32786314001E100662E873118
:100C9000D32786314001E0006008F600F7016108C3
:100CA000F800F9017808F900F80176087804FB00EB
:100CB00077087904FC00D830F0000030F1007C089F
:100CC000F3007B08F2008431CD2486314101C40158
:100CD000C50108009734053400340034D334073498
:100CE000F934063400340034D2340E340034003485
:100CF00092340E34003400340034003400340034B4
:100D00000034003400340034003400340034003443
:100D100000340034003400340034003421340F3403
:100D20000034003430340F343F340F340034003496
:100D3000003400347E34073400340034003400348E
:100D4000A6340E3400340034EE340734003400345A
:100D500098340E340034003400340034003400344D
:100D600000340034003400340034003400340034E3
:100D700000340034003400340034003400340034D3
:100D8000003400344E340F345D340F3400340034FA
:100D90000034003457304001A2000230A30000307C
:100DA000A40087311D27863140015808D200D301A5
:100DB0005708D400D5015408D500D4015208540472
:100DC000D90053085504DA00590A031DEB2E5A0ABC
:100DD000031DEB2EEC2EF32E5930CE009030CF00B9
:100DE0008F310427863140015A08D1005908D000BC
:100DF00008004E01191AFD2EFE2E032F4001220875
:100E000042019A001A2F400167080319082F092F81
:100E10001A2F6908B83E86008701220881006908F8
:100E2000013E0739A3002308E9004E0119120130E1
:100E30004001E7024E011916080040012208A700F0
:100E40002408A6002308A500382F2708860087015C
:100E5000010843018C004E010F1C2F2F302F2B2F28
:100E60000F1001304001A7070130A5020030A63B5A
:100E700025082604031D3D2F3E2F252F0800400185
:100E8000A601A701221C452F462F4A2F2408A6079A
:100E90002508A73D0130A435A50D890B4B2F013046
:100EA000A336A20C890B502F22082304031D592FAF
:100EB0005A2F422F2708A3002608A200080040014D
:100EC0004408C8004308C700712F4208AE0041081B
:100ED000AD004730AF004508B000B10180315A2065
:100EE0008731400147088400480885001200031D2F
:100EF0007A2F7B2F652FC101C201080048305401B1
:100F00009F0090309D0026309E0019309B009C0170
:100F10008A304001A2000E30A3008F314E27873166
:100F20009E304001A2000E30A3008F315D27873133
:100F30004101D401D5010800C0340E34003400341E
:100F40004A340334003400341D3407340034003490
:100F500000340034003400340034003400340034F1
:100F600000340034003400340034003400340034E1
:100F70000830400167020318BE2FBF2FD02F68082A
:100F8000B83E86008701010842019A0040016808C6
:100F9000013E0739F0007008E8000130E707D22F62
:100FA0004E011912080040016608B03E8600870114
:100FB0000108F1006608013E0739F0007008E600FC
:100FC0004E019912400165080319E72FE82FEA2F17
:100FD0000130E5024E019916710808004001A20196
:100FE0004E010F1FF42FF52FFD2F54019E1EF92FD8
:100FF000FA2FFD2F01304001A20040012208080015
:101D14000800080042019D17080042011D16080032
:101D240042019E16080054019D17080054019E1696
:101D340008004B019E17080054011D121D160800CF
:101D440042011D121D1608004001220854019A0088
:101D5400080001304101C4070030C53D080064009B
:101D640080010131890BB22E003440012308410166
:101D7400D700400122084101D60008004E01191085
:101D84000F1043018F01900192018D010800400161
:101D940023084101E000400122084101DF0008005E
:101DA40040016708031DD72ED92E0130DA2E0030EA
:101DB40008008631CA268E3140015108DC005008E3
:101DC400DB000800603051018D0040308F0091012C
:101DD40004309300920108004301901264308F0094
:101DE40090011030920001308D00901608004E01D1
:101DF4000C1000304001A2000030A3008E31B72641
:101E04008E31080076304001C9009030CA004F0876
:101E1400CC004E08CB008F317C278F31102F080067
:101E240041015F0860040319182F192F1E2F600841
:101E34008A005F080A008F314E018C1208004001AD
:101E4400220823040319272F282F2F2F23084101A9
:101E5400CB00400122084101CA00080040012208C9
:101E640023040319362F372F3E2F23084101C900BD
:101E7400400122084101C80008004001220823044F
:101E84000319452F462F4D2F23084101C700400158
:101E940022084101C6000800400122082304031956
:101EA400542F552F5C2F23084101D30040012208F1
:101EB4004101D20008004001220823040319632FC2
:101EC400642F6B2F23084101D100400122084101F6
:101ED400D00008004301901264308F000430900059
:101EE400103092008D0190164001A80183314A23DD
:101EF4008F3108004B304001CD000030C100C200DA
:101F04004A08C4004908C3004D30C50087315F2723
:101F14008F3108004001A3008731EE278F31003A4A
:101F24000319952F962F8E2F40012308A2008E317E
:101F3400A6268F3108004001A4008E31D2268F31AD
:101F4400003A0319A62FA72F9F2F40012408A200AF
:101F54008631F9268F3108004001A3008731EE272E
:101F64008F31003A0319B72FB82FB02F400123083F
:101F7400A2008E31A6268F3108005C304B019D00F3
:101F84009C0174309F0002304101DF000030E0000A
:101F94004E018C12961687304B019E0008008E313C
:101FA400E4268F31843118248F318F31BF278F314C
:101FB400853197258F3187317E278F318E31C02629
:101FC4008F318E31F9268F310800F52F24088400D3
:101FD4002508850000088F318C278F31013040019E
:101FE400A4070030A53D400124088400250885008D
:101FF4001200031DFE2FFF2FE82F080072346534F2
:1020040067346934733474346534723469346E34C7
:1020140067342034683461346E3464346C34653429
:1020240072340A340D34003465346E3461346234ED
:102034006C3469346E3467342034753473346134E9
:102044007234743431340A340D3400345434653405
:102054006D3470346534723461347434753472346C
:1020640065343A342034253475340A340D3400345C
:1020740065346E3474346534723469346E34673460
:1020840020346C346F346F3470340A340D340034BB
:102094004D346F34643465343A3420346D346134EF
:1020A40073347434653472340A340D340034533464
:1020B4005034493420345234653461346434203427
:1020C4004534723472346F34723400344D346F34A6
:1020D400643465343A34203473346C346134763483
:1020E40065340A340D3400344534723472346F3438
:1020F40072343A342034253473340A3400340034CE
:10210400043410340134003464340434103400349E
:0C2114000034253478340D340A340034D3
:020000040001F9
:0A000E00FA37FF3D9F3FFF3FFF3F21
:00000001FF
